{
  "abi": [
    {
      "inputs": [
        {
          "internalType": "string",
          "name": "_uri",
          "type": "string"
        }
      ],
      "stateMutability": "nonpayable",
      "type": "constructor"
    },
    {
      "anonymous": false,
      "inputs": [
        {
          "indexed": true,
          "internalType": "address",
          "name": "account",
          "type": "address"
        },
        {
          "indexed": true,
          "internalType": "address",
          "name": "operator",
          "type": "address"
        },
        {
          "indexed": false,
          "internalType": "bool",
          "name": "approved",
          "type": "bool"
        }
      ],
      "name": "ApprovalForAll",
      "type": "event"
    },
    {
      "anonymous": false,
      "inputs": [
        {
          "indexed": true,
          "internalType": "address",
          "name": "operator",
          "type": "address"
        },
        {
          "indexed": true,
          "internalType": "address",
          "name": "from",
          "type": "address"
        },
        {
          "indexed": true,
          "internalType": "address",
          "name": "to",
          "type": "address"
        },
        {
          "indexed": false,
          "internalType": "uint256[]",
          "name": "ids",
          "type": "uint256[]"
        },
        {
          "indexed": false,
          "internalType": "uint256[]",
          "name": "values",
          "type": "uint256[]"
        }
      ],
      "name": "TransferBatch",
      "type": "event"
    },
    {
      "anonymous": false,
      "inputs": [
        {
          "indexed": true,
          "internalType": "address",
          "name": "operator",
          "type": "address"
        },
        {
          "indexed": true,
          "internalType": "address",
          "name": "from",
          "type": "address"
        },
        {
          "indexed": true,
          "internalType": "address",
          "name": "to",
          "type": "address"
        },
        {
          "indexed": false,
          "internalType": "uint256",
          "name": "id",
          "type": "uint256"
        },
        {
          "indexed": false,
          "internalType": "uint256",
          "name": "value",
          "type": "uint256"
        }
      ],
      "name": "TransferSingle",
      "type": "event"
    },
    {
      "anonymous": false,
      "inputs": [
        {
          "indexed": false,
          "internalType": "string",
          "name": "value",
          "type": "string"
        },
        {
          "indexed": true,
          "internalType": "uint256",
          "name": "id",
          "type": "uint256"
        }
      ],
      "name": "URI",
      "type": "event"
    },
    {
      "inputs": [
        {
          "internalType": "address",
          "name": "to",
          "type": "address"
        },
        {
          "internalType": "uint256",
          "name": "id",
          "type": "uint256"
        },
        {
          "internalType": "uint256",
          "name": "amount",
          "type": "uint256"
        }
      ],
      "name": "MintSubScription",
      "outputs": [],
      "stateMutability": "nonpayable",
      "type": "function"
    },
    {
      "inputs": [
        {
          "internalType": "address",
          "name": "account",
          "type": "address"
        },
        {
          "internalType": "uint256",
          "name": "id",
          "type": "uint256"
        }
      ],
      "name": "balanceOf",
      "outputs": [
        {
          "internalType": "uint256",
          "name": "",
          "type": "uint256"
        }
      ],
      "stateMutability": "view",
      "type": "function"
    },
    {
      "inputs": [
        {
          "internalType": "address[]",
          "name": "accounts",
          "type": "address[]"
        },
        {
          "internalType": "uint256[]",
          "name": "ids",
          "type": "uint256[]"
        }
      ],
      "name": "balanceOfBatch",
      "outputs": [
        {
          "internalType": "uint256[]",
          "name": "",
          "type": "uint256[]"
        }
      ],
      "stateMutability": "view",
      "type": "function"
    },
    {
      "inputs": [],
      "name": "factoryAddress",
      "outputs": [
        {
          "internalType": "address",
          "name": "",
          "type": "address"
        }
      ],
      "stateMutability": "view",
      "type": "function"
    },
    {
      "inputs": [
        {
          "internalType": "address",
          "name": "account",
          "type": "address"
        },
        {
          "internalType": "address",
          "name": "operator",
          "type": "address"
        }
      ],
      "name": "isApprovedForAll",
      "outputs": [
        {
          "internalType": "bool",
          "name": "",
          "type": "bool"
        }
      ],
      "stateMutability": "view",
      "type": "function"
    },
    {
      "inputs": [],
      "name": "owner",
      "outputs": [
        {
          "internalType": "address",
          "name": "",
          "type": "address"
        }
      ],
      "stateMutability": "view",
      "type": "function"
    },
    {
      "inputs": [
        {
          "internalType": "address",
          "name": "from",
          "type": "address"
        },
        {
          "internalType": "address",
          "name": "to",
          "type": "address"
        },
        {
          "internalType": "uint256[]",
          "name": "ids",
          "type": "uint256[]"
        },
        {
          "internalType": "uint256[]",
          "name": "amounts",
          "type": "uint256[]"
        },
        {
          "internalType": "bytes",
          "name": "data",
          "type": "bytes"
        }
      ],
      "name": "safeBatchTransferFrom",
      "outputs": [],
      "stateMutability": "nonpayable",
      "type": "function"
    },
    {
      "inputs": [
        {
          "internalType": "address",
          "name": "from",
          "type": "address"
        },
        {
          "internalType": "address",
          "name": "to",
          "type": "address"
        },
        {
          "internalType": "uint256",
          "name": "id",
          "type": "uint256"
        },
        {
          "internalType": "uint256",
          "name": "amount",
          "type": "uint256"
        },
        {
          "internalType": "bytes",
          "name": "data",
          "type": "bytes"
        }
      ],
      "name": "safeTransferFrom",
      "outputs": [],
      "stateMutability": "nonpayable",
      "type": "function"
    },
    {
      "inputs": [
        {
          "internalType": "address",
          "name": "operator",
          "type": "address"
        },
        {
          "internalType": "bool",
          "name": "approved",
          "type": "bool"
        }
      ],
      "name": "setApprovalForAll",
      "outputs": [],
      "stateMutability": "nonpayable",
      "type": "function"
    },
    {
      "inputs": [
        {
          "internalType": "bytes4",
          "name": "interfaceId",
          "type": "bytes4"
        }
      ],
      "name": "supportsInterface",
      "outputs": [
        {
          "internalType": "bool",
          "name": "",
          "type": "bool"
        }
      ],
      "stateMutability": "view",
      "type": "function"
    },
    {
      "inputs": [
        {
          "internalType": "uint256",
          "name": "",
          "type": "uint256"
        }
      ],
      "name": "uri",
      "outputs": [
        {
          "internalType": "string",
          "name": "",
          "type": "string"
        }
      ],
      "stateMutability": "view",
      "type": "function"
    }
  ],
  "bytecode": {
    "object": "0x60806040523480156200001157600080fd5b506040516200139638038062001396833981016040819052620000349162000082565b8062000040816200005a565b5050600480546001600160a01b03191633179055620002b2565b6002620000688282620001e6565b5050565b634e487b7160e01b600052604160045260246000fd5b600060208083850312156200009657600080fd5b82516001600160401b0380821115620000ae57600080fd5b818501915085601f830112620000c357600080fd5b815181811115620000d857620000d86200006c565b604051601f8201601f19908116603f011681019083821181831017156200010357620001036200006c565b8160405282815288868487010111156200011c57600080fd5b600093505b8284101562000140578484018601518185018701529285019262000121565b600086848301015280965050505050505092915050565b600181811c908216806200016c57607f821691505b6020821081036200018d57634e487b7160e01b600052602260045260246000fd5b50919050565b601f821115620001e157600081815260208120601f850160051c81016020861015620001bc5750805b601f850160051c820191505b81811015620001dd57828155600101620001c8565b5050505b505050565b81516001600160401b038111156200020257620002026200006c565b6200021a8162000213845462000157565b8462000193565b602080601f831160018114620002525760008415620002395750858301515b600019600386901b1c1916600185901b178555620001dd565b600085815260208120601f198616915b82811015620002835788860151825594840194600190910190840162000262565b5085821015620002a25787850151600019600388901b60f8161c191681555b5050505050600190811b01905550565b6110d480620002c26000396000f3fe608060405234801561001057600080fd5b50600436106100a85760003560e01c80634e1273f4116100715780634e1273f41461013e5780638da5cb5b1461015e578063966dae0e14610189578063a22cb4651461019c578063e985e9c5146101af578063f242432a146101eb57600080fd5b8062fdd58e146100ad57806301ffc9a7146100d35780630e89341c146100f65780631ccd7d0b146101165780632eb2c2d61461012b575b600080fd5b6100c06100bb3660046109f9565b6101f9565b6040519081526020015b60405180910390f35b6100e66100e1366004610a3c565b610292565b60405190151581526020016100ca565b610109610104366004610a60565b6102e2565b6040516100ca9190610abf565b610129610124366004610ad2565b610376565b005b610129610139366004610c51565b610486565b61015161014c366004610cfb565b6104c1565b6040516100ca9190610dc6565b600454610171906001600160a01b031681565b6040516001600160a01b0390911681526020016100ca565b600354610171906001600160a01b031681565b6101296101aa366004610e18565b6105eb565b6100e66101bd366004610e4f565b6001600160a01b03918216600090815260016020908152604080832093909416825291909152205460ff1690565b610129610139366004610e82565b60006001600160a01b0383166102695760405162461bcd60e51b815260206004820152602a60248201527f455243313135353a2061646472657373207a65726f206973206e6f742061207660448201526930b634b21037bbb732b960b11b60648201526084015b60405180910390fd5b506000818152602081815260408083206001600160a01b03861684529091529020545b92915050565b60006001600160e01b03198216636cdb3d1360e11b14806102c357506001600160e01b031982166303a24d0760e21b145b8061028c57506301ffc9a760e01b6001600160e01b031983161461028c565b6060600280546102f190610ee7565b80601f016020809104026020016040519081016040528092919081815260200182805461031d90610ee7565b801561036a5780601f1061033f5761010080835404028352916020019161036a565b820191906000526020600020905b81548152906001019060200180831161034d57829003601f168201915b50505050509050919050565b60035460405163d60dee1560e01b81523360048201526000916001600160a01b03169063d60dee1590602401602060405180830381865afa1580156103bf573d6000803e3d6000fd5b505050506040513d601f19601f820116820180604052508101906103e39190610f21565b90506001600160a01b0384166104265760405162461bcd60e51b81526020600482015260086024820152676e6f6e2d7a65726f60c01b6044820152606401610260565b6001811515146104655760405162461bcd60e51b815260206004820152600a6024820152691b9bc81858d8dbdd5b9d60b21b6044820152606401610260565b610480848484604051806020016040528060008152506105fa565b50505050565b60405162461bcd60e51b815260206004820152601060248201526f6e6f6e2d7472616e7366657261626c6560801b6044820152606401610260565b606081518351146105265760405162461bcd60e51b815260206004820152602960248201527f455243313135353a206163636f756e747320616e6420696473206c656e677468604482015268040dad2e6dac2e8c6d60bb1b6064820152608401610260565b6000835167ffffffffffffffff81111561054257610542610b05565b60405190808252806020026020018201604052801561056b578160200160208202803683370190505b50905060005b84518110156105e3576105b685828151811061058f5761058f610f3e565b60200260200101518583815181106105a9576105a9610f3e565b60200260200101516101f9565b8282815181106105c8576105c8610f3e565b60209081029190910101526105dc81610f6a565b9050610571565b509392505050565b6105f633838361070e565b5050565b6001600160a01b03841661065a5760405162461bcd60e51b815260206004820152602160248201527f455243313135353a206d696e7420746f20746865207a65726f206164647265736044820152607360f81b6064820152608401610260565b336000610666856107ee565b90506000610673856107ee565b90506000868152602081815260408083206001600160a01b038b168452909152812080548792906106a5908490610f83565b909155505060408051878152602081018790526001600160a01b03808a1692600092918716917fc3d58168c5ae7397731d063d5bbf3d657854427343f4c083240f7aacaa2d0f62910160405180910390a461070583600089898989610841565b50505050505050565b816001600160a01b0316836001600160a01b0316036107815760405162461bcd60e51b815260206004820152602960248201527f455243313135353a2073657474696e6720617070726f76616c20737461747573604482015268103337b91039b2b63360b91b6064820152608401610260565b6001600160a01b03838116600081815260016020908152604080832094871680845294825291829020805460ff191686151590811790915591519182527f17307eab39ab6107e8899845ad3d59bd9653f200f220920489ca2b5937696c31910160405180910390a3505050565b6040805160018082528183019092526060916000919060208083019080368337019050509050828160008151811061082857610828610f3e565b602090810291909101015292915050565b505050505050565b6001600160a01b0384163b156108395760405163f23a6e6160e01b81526001600160a01b0385169063f23a6e61906108859089908990889088908890600401610f96565b6020604051808303816000875af19250505080156108c0575060408051601f3d908101601f191682019092526108bd91810190610fdb565b60015b61096c576108cc610ff8565b806308c379a00361090557506108e0611014565b806108eb5750610907565b8060405162461bcd60e51b81526004016102609190610abf565b505b60405162461bcd60e51b815260206004820152603460248201527f455243313135353a207472616e7366657220746f206e6f6e2d455243313135356044820152732932b1b2b4bb32b91034b6b83632b6b2b73a32b960611b6064820152608401610260565b6001600160e01b0319811663f23a6e6160e01b146107055760405162461bcd60e51b815260206004820152602860248201527f455243313135353a204552433131353552656365697665722072656a656374656044820152676420746f6b656e7360c01b6064820152608401610260565b80356001600160a01b03811681146109f457600080fd5b919050565b60008060408385031215610a0c57600080fd5b610a15836109dd565b946020939093013593505050565b6001600160e01b031981168114610a3957600080fd5b50565b600060208284031215610a4e57600080fd5b8135610a5981610a23565b9392505050565b600060208284031215610a7257600080fd5b5035919050565b6000815180845260005b81811015610a9f57602081850181015186830182015201610a83565b506000602082860101526020601f19601f83011685010191505092915050565b602081526000610a596020830184610a79565b600080600060608486031215610ae757600080fd5b610af0846109dd565b95602085013595506040909401359392505050565b634e487b7160e01b600052604160045260246000fd5b601f8201601f1916810167ffffffffffffffff81118282101715610b4157610b41610b05565b6040525050565b600067ffffffffffffffff821115610b6257610b62610b05565b5060051b60200190565b600082601f830112610b7d57600080fd5b81356020610b8a82610b48565b604051610b978282610b1b565b83815260059390931b8501820192828101915086841115610bb757600080fd5b8286015b84811015610bd25780358352918301918301610bbb565b509695505050505050565b600082601f830112610bee57600080fd5b813567ffffffffffffffff811115610c0857610c08610b05565b604051610c1f601f8301601f191660200182610b1b565b818152846020838601011115610c3457600080fd5b816020850160208301376000918101602001919091529392505050565b600080600080600060a08688031215610c6957600080fd5b610c72866109dd565b9450610c80602087016109dd565b9350604086013567ffffffffffffffff80821115610c9d57600080fd5b610ca989838a01610b6c565b94506060880135915080821115610cbf57600080fd5b610ccb89838a01610b6c565b93506080880135915080821115610ce157600080fd5b50610cee88828901610bdd565b9150509295509295909350565b60008060408385031215610d0e57600080fd5b823567ffffffffffffffff80821115610d2657600080fd5b818501915085601f830112610d3a57600080fd5b81356020610d4782610b48565b604051610d548282610b1b565b83815260059390931b8501820192828101915089841115610d7457600080fd5b948201945b83861015610d9957610d8a866109dd565b82529482019490820190610d79565b96505086013592505080821115610daf57600080fd5b50610dbc85828601610b6c565b9150509250929050565b6020808252825182820181905260009190848201906040850190845b81811015610dfe57835183529284019291840191600101610de2565b50909695505050505050565b8015158114610a3957600080fd5b60008060408385031215610e2b57600080fd5b610e34836109dd565b91506020830135610e4481610e0a565b809150509250929050565b60008060408385031215610e6257600080fd5b610e6b836109dd565b9150610e79602084016109dd565b90509250929050565b600080600080600060a08688031215610e9a57600080fd5b610ea3866109dd565b9450610eb1602087016109dd565b93506040860135925060608601359150608086013567ffffffffffffffff811115610edb57600080fd5b610cee88828901610bdd565b600181811c90821680610efb57607f821691505b602082108103610f1b57634e487b7160e01b600052602260045260246000fd5b50919050565b600060208284031215610f3357600080fd5b8151610a5981610e0a565b634e487b7160e01b600052603260045260246000fd5b634e487b7160e01b600052601160045260246000fd5b600060018201610f7c57610f7c610f54565b5060010190565b8082018082111561028c5761028c610f54565b6001600160a01b03868116825285166020820152604081018490526060810183905260a060808201819052600090610fd090830184610a79565b979650505050505050565b600060208284031215610fed57600080fd5b8151610a5981610a23565b600060033d11156110115760046000803e5060005160e01c5b90565b600060443d10156110225790565b6040516003193d81016004833e81513d67ffffffffffffffff816024840111818411171561105257505050505090565b828501915081518181111561106a5750505050505090565b843d87010160208285010111156110845750505050505090565b61109360208286010187610b1b565b50909594505050505056fea2646970667358221220b75ceff475fd5bd3c627c95dc9d02de277b540955f8dc8e4946da21d82c6a12c64736f6c63430008150033",
    "linkReferences": {}
  },
  "methodIdentifiers": {
    "MintSubScription(address,uint256,uint256)": "1ccd7d0b",
    "balanceOf(address,uint256)": "00fdd58e",
    "balanceOfBatch(address[],uint256[])": "4e1273f4",
    "factoryAddress()": "966dae0e",
    "isApprovedForAll(address,address)": "e985e9c5",
    "owner()": "8da5cb5b",
    "safeBatchTransferFrom(address,address,uint256[],uint256[],bytes)": "2eb2c2d6",
    "safeTransferFrom(address,address,uint256,uint256,bytes)": "f242432a",
    "setApprovalForAll(address,bool)": "a22cb465",
    "supportsInterface(bytes4)": "01ffc9a7",
    "uri(uint256)": "0e89341c"
  },
  "id": 27
}