{
  "abi": [
    {
      "inputs": [
        {
          "internalType": "string",
          "name": "_name",
          "type": "string"
        },
        {
          "internalType": "string",
          "name": "_symbol",
          "type": "string"
        },
        {
          "internalType": "uint256",
          "name": "_nftId",
          "type": "uint256"
        },
        {
          "internalType": "address",
          "name": "_admin",
          "type": "address"
        },
        {
          "internalType": "address",
          "name": "_factoryContract",
          "type": "address"
        },
        {
          "internalType": "address",
          "name": "_tokenForReceipt",
          "type": "address"
        },
        {
          "internalType": "address",
          "name": "_tokenForPayment",
          "type": "address"
        }
      ],
      "stateMutability": "nonpayable",
      "type": "constructor"
    },
    {
      "anonymous": false,
      "inputs": [
        {
          "indexed": false,
          "internalType": "uint256",
          "name": "planId",
          "type": "uint256"
        },
        {
          "indexed": false,
          "internalType": "bool",
          "name": "planActive",
          "type": "bool"
        }
      ],
      "name": "planActive",
      "type": "event"
    },
    {
      "anonymous": false,
      "inputs": [
        {
          "indexed": false,
          "internalType": "string",
          "name": "name",
          "type": "string"
        },
        {
          "indexed": false,
          "internalType": "uint256",
          "name": "price",
          "type": "uint256"
        },
        {
          "indexed": false,
          "internalType": "uint256",
          "name": "duration",
          "type": "uint256"
        },
        {
          "indexed": false,
          "internalType": "uint256",
          "name": "planId",
          "type": "uint256"
        }
      ],
      "name": "planCreated",
      "type": "event"
    },
    {
      "anonymous": false,
      "inputs": [
        {
          "indexed": false,
          "internalType": "uint256",
          "name": "time",
          "type": "uint256"
        },
        {
          "indexed": false,
          "internalType": "uint256",
          "name": "totalSubsUpdated",
          "type": "uint256"
        }
      ],
      "name": "subscriptionsUpdated",
      "type": "event"
    },
    {
      "anonymous": false,
      "inputs": [
        {
          "indexed": false,
          "internalType": "uint256",
          "name": "planId",
          "type": "uint256"
        },
        {
          "indexed": false,
          "internalType": "address",
          "name": "userAddress",
          "type": "address"
        },
        {
          "indexed": false,
          "internalType": "bool",
          "name": "renewed",
          "type": "bool"
        },
        {
          "indexed": false,
          "internalType": "uint256",
          "name": "startTime",
          "type": "uint256"
        },
        {
          "indexed": false,
          "internalType": "uint256",
          "name": "endTime",
          "type": "uint256"
        }
      ],
      "name": "userRenewed",
      "type": "event"
    },
    {
      "anonymous": false,
      "inputs": [
        {
          "indexed": false,
          "internalType": "string",
          "name": "email",
          "type": "string"
        },
        {
          "indexed": false,
          "internalType": "bool",
          "name": "autoSubscribe",
          "type": "bool"
        },
        {
          "indexed": false,
          "internalType": "address",
          "name": "userAddress",
          "type": "address"
        },
        {
          "indexed": false,
          "internalType": "string",
          "name": "planName",
          "type": "string"
        }
      ],
      "name": "userSubscribed",
      "type": "event"
    },
    {
      "inputs": [],
      "name": "AvailablePlans",
      "outputs": [
        {
          "components": [
            {
              "internalType": "string",
              "name": "planName",
              "type": "string"
            },
            {
              "internalType": "uint256",
              "name": "price",
              "type": "uint256"
            },
            {
              "internalType": "uint256",
              "name": "planID",
              "type": "uint256"
            },
            {
              "internalType": "bool",
              "name": "planActive",
              "type": "bool"
            },
            {
              "internalType": "uint256",
              "name": "planDuration",
              "type": "uint256"
            },
            {
              "internalType": "uint256",
              "name": "totalSubscribers",
              "type": "uint256"
            }
          ],
          "internalType": "struct CompanyContract.PlansDetails[]",
          "name": "",
          "type": "tuple[]"
        }
      ],
      "stateMutability": "view",
      "type": "function"
    },
    {
      "inputs": [
        {
          "internalType": "uint256",
          "name": "",
          "type": "uint256"
        },
        {
          "internalType": "uint256",
          "name": "",
          "type": "uint256"
        }
      ],
      "name": "TrackDayToUsers",
      "outputs": [
        {
          "internalType": "address",
          "name": "",
          "type": "address"
        }
      ],
      "stateMutability": "view",
      "type": "function"
    },
    {
      "inputs": [
        {
          "internalType": "uint256",
          "name": "_planId",
          "type": "uint256"
        }
      ],
      "name": "activatePlan",
      "outputs": [
        {
          "internalType": "bool",
          "name": "",
          "type": "bool"
        }
      ],
      "stateMutability": "nonpayable",
      "type": "function"
    },
    {
      "inputs": [
        {
          "internalType": "uint256",
          "name": "",
          "type": "uint256"
        }
      ],
      "name": "activattionStatus",
      "outputs": [
        {
          "internalType": "bool",
          "name": "",
          "type": "bool"
        }
      ],
      "stateMutability": "view",
      "type": "function"
    },
    {
      "inputs": [],
      "name": "admin",
      "outputs": [
        {
          "internalType": "address",
          "name": "",
          "type": "address"
        }
      ],
      "stateMutability": "view",
      "type": "function"
    },
    {
      "inputs": [
        {
          "internalType": "uint256",
          "name": "",
          "type": "uint256"
        }
      ],
      "name": "availiablePlans",
      "outputs": [
        {
          "internalType": "string",
          "name": "planName",
          "type": "string"
        },
        {
          "internalType": "uint256",
          "name": "price",
          "type": "uint256"
        },
        {
          "internalType": "uint256",
          "name": "planID",
          "type": "uint256"
        },
        {
          "internalType": "bool",
          "name": "planActive",
          "type": "bool"
        },
        {
          "internalType": "uint256",
          "name": "planDuration",
          "type": "uint256"
        },
        {
          "internalType": "uint256",
          "name": "totalSubscribers",
          "type": "uint256"
        }
      ],
      "stateMutability": "view",
      "type": "function"
    },
    {
      "inputs": [],
      "name": "chainlinkDailyCall",
      "outputs": [],
      "stateMutability": "nonpayable",
      "type": "function"
    },
    {
      "inputs": [
        {
          "internalType": "string",
          "name": "_planName",
          "type": "string"
        },
        {
          "internalType": "uint256",
          "name": "_planPrice",
          "type": "uint256"
        },
        {
          "internalType": "uint256",
          "name": "_planDuration",
          "type": "uint256"
        }
      ],
      "name": "createPlan",
      "outputs": [],
      "stateMutability": "nonpayable",
      "type": "function"
    },
    {
      "inputs": [
        {
          "internalType": "uint256",
          "name": "_planId",
          "type": "uint256"
        }
      ],
      "name": "deactivatePlan",
      "outputs": [
        {
          "internalType": "bool",
          "name": "",
          "type": "bool"
        }
      ],
      "stateMutability": "nonpayable",
      "type": "function"
    },
    {
      "inputs": [],
      "name": "factoryContract",
      "outputs": [
        {
          "internalType": "address",
          "name": "",
          "type": "address"
        }
      ],
      "stateMutability": "view",
      "type": "function"
    },
    {
      "inputs": [],
      "name": "getCompanyDetails",
      "outputs": [
        {
          "internalType": "string",
          "name": "name_",
          "type": "string"
        },
        {
          "internalType": "string",
          "name": "symbol_",
          "type": "string"
        },
        {
          "internalType": "address",
          "name": "admin_",
          "type": "address"
        },
        {
          "internalType": "address",
          "name": "companyAddress_",
          "type": "address"
        }
      ],
      "stateMutability": "view",
      "type": "function"
    },
    {
      "inputs": [
        {
          "internalType": "uint256",
          "name": "month",
          "type": "uint256"
        },
        {
          "internalType": "uint256",
          "name": "year",
          "type": "uint256"
        }
      ],
      "name": "getDaysInMonth",
      "outputs": [
        {
          "internalType": "uint256",
          "name": "",
          "type": "uint256"
        }
      ],
      "stateMutability": "pure",
      "type": "function"
    },
    {
      "inputs": [
        {
          "internalType": "uint256",
          "name": "year",
          "type": "uint256"
        }
      ],
      "name": "isLeapYear",
      "outputs": [
        {
          "internalType": "bool",
          "name": "",
          "type": "bool"
        }
      ],
      "stateMutability": "pure",
      "type": "function"
    },
    {
      "inputs": [],
      "name": "lastCallTime",
      "outputs": [
        {
          "internalType": "uint256",
          "name": "",
          "type": "uint256"
        }
      ],
      "stateMutability": "view",
      "type": "function"
    },
    {
      "inputs": [],
      "name": "name",
      "outputs": [
        {
          "internalType": "string",
          "name": "",
          "type": "string"
        }
      ],
      "stateMutability": "view",
      "type": "function"
    },
    {
      "inputs": [],
      "name": "nftId",
      "outputs": [
        {
          "internalType": "uint256",
          "name": "",
          "type": "uint256"
        }
      ],
      "stateMutability": "view",
      "type": "function"
    },
    {
      "inputs": [],
      "name": "oneMonthTimestamp",
      "outputs": [
        {
          "internalType": "uint256",
          "name": "",
          "type": "uint256"
        }
      ],
      "stateMutability": "view",
      "type": "function"
    },
    {
      "inputs": [
        {
          "internalType": "string",
          "name": "_userEmail",
          "type": "string"
        },
        {
          "internalType": "bool",
          "name": "_autoSubscribe",
          "type": "bool"
        },
        {
          "internalType": "uint256",
          "name": "_planId",
          "type": "uint256"
        }
      ],
      "name": "subscribe",
      "outputs": [
        {
          "internalType": "uint256",
          "name": "userId",
          "type": "uint256"
        }
      ],
      "stateMutability": "nonpayable",
      "type": "function"
    },
    {
      "inputs": [
        {
          "internalType": "uint256",
          "name": "",
          "type": "uint256"
        },
        {
          "internalType": "uint256",
          "name": "",
          "type": "uint256"
        }
      ],
      "name": "subscribersData",
      "outputs": [
        {
          "internalType": "address",
          "name": "userAddress",
          "type": "address"
        },
        {
          "internalType": "string",
          "name": "userEmail",
          "type": "string"
        },
        {
          "internalType": "uint256",
          "name": "timeOfSubscription",
          "type": "uint256"
        },
        {
          "internalType": "uint256",
          "name": "subscriptionEnds",
          "type": "uint256"
        },
        {
          "internalType": "bool",
          "name": "autoSubscribe",
          "type": "bool"
        },
        {
          "internalType": "bool",
          "name": "subscriptionStatus",
          "type": "bool"
        }
      ],
      "stateMutability": "view",
      "type": "function"
    },
    {
      "inputs": [
        {
          "internalType": "address",
          "name": "",
          "type": "address"
        },
        {
          "internalType": "uint256",
          "name": "",
          "type": "uint256"
        }
      ],
      "name": "subscriptionIndex4User",
      "outputs": [
        {
          "internalType": "uint256",
          "name": "",
          "type": "uint256"
        }
      ],
      "stateMutability": "view",
      "type": "function"
    },
    {
      "inputs": [],
      "name": "symbol",
      "outputs": [
        {
          "internalType": "string",
          "name": "",
          "type": "string"
        }
      ],
      "stateMutability": "view",
      "type": "function"
    },
    {
      "inputs": [
        {
          "internalType": "uint256",
          "name": "timestamp",
          "type": "uint256"
        }
      ],
      "name": "timestampToDate",
      "outputs": [
        {
          "internalType": "uint256",
          "name": "year",
          "type": "uint256"
        },
        {
          "internalType": "uint256",
          "name": "month",
          "type": "uint256"
        },
        {
          "internalType": "uint256",
          "name": "day",
          "type": "uint256"
        }
      ],
      "stateMutability": "pure",
      "type": "function"
    },
    {
      "inputs": [],
      "name": "tokenForPayment",
      "outputs": [
        {
          "internalType": "address",
          "name": "",
          "type": "address"
        }
      ],
      "stateMutability": "view",
      "type": "function"
    },
    {
      "inputs": [],
      "name": "tokenForReceipt",
      "outputs": [
        {
          "internalType": "address",
          "name": "",
          "type": "address"
        }
      ],
      "stateMutability": "view",
      "type": "function"
    },
    {
      "inputs": [],
      "name": "totalSubAvailiable",
      "outputs": [
        {
          "internalType": "uint256",
          "name": "",
          "type": "uint256"
        }
      ],
      "stateMutability": "view",
      "type": "function"
    },
    {
      "inputs": [
        {
          "internalType": "uint256",
          "name": "_planId",
          "type": "uint256"
        },
        {
          "internalType": "address",
          "name": "_user",
          "type": "address"
        }
      ],
      "name": "unSubscribe",
      "outputs": [
        {
          "internalType": "bool",
          "name": "success",
          "type": "bool"
        }
      ],
      "stateMutability": "nonpayable",
      "type": "function"
    },
    {
      "inputs": [
        {
          "internalType": "address",
          "name": "",
          "type": "address"
        },
        {
          "internalType": "uint256",
          "name": "",
          "type": "uint256"
        }
      ],
      "name": "userToSubscriptions",
      "outputs": [
        {
          "internalType": "uint256",
          "name": "",
          "type": "uint256"
        }
      ],
      "stateMutability": "view",
      "type": "function"
    },
    {
      "inputs": [
        {
          "internalType": "uint256",
          "name": "_planId",
          "type": "uint256"
        }
      ],
      "name": "viewPlan",
      "outputs": [
        {
          "components": [
            {
              "internalType": "string",
              "name": "planName",
              "type": "string"
            },
            {
              "internalType": "uint256",
              "name": "price",
              "type": "uint256"
            },
            {
              "internalType": "uint256",
              "name": "planID",
              "type": "uint256"
            },
            {
              "internalType": "bool",
              "name": "planActive",
              "type": "bool"
            },
            {
              "internalType": "uint256",
              "name": "planDuration",
              "type": "uint256"
            },
            {
              "internalType": "uint256",
              "name": "totalSubscribers",
              "type": "uint256"
            }
          ],
          "internalType": "struct CompanyContract.PlansDetails",
          "name": "plan",
          "type": "tuple"
        }
      ],
      "stateMutability": "view",
      "type": "function"
    }
  ],
  "bytecode": {
    "object": "0x60806040526228206f6007553480156200001857600080fd5b5060405162002891380380620028918339810160408190526200003b9162000196565b6003620000498882620002e3565b506004620000588782620002e3565b50600694909455600580546001600160a01b03199081166001600160a01b039586161790915560028054821693851693909317909255600180548316918416919091179055600080549091169190921617905550620003af9050565b634e487b7160e01b600052604160045260246000fd5b600082601f830112620000dc57600080fd5b81516001600160401b0380821115620000f957620000f9620000b4565b604051601f8301601f19908116603f01168101908282118183101715620001245762000124620000b4565b816040528381526020925086838588010111156200014157600080fd5b600091505b8382101562000165578582018301518183018401529082019062000146565b600093810190920192909252949350505050565b80516001600160a01b03811681146200019157600080fd5b919050565b600080600080600080600060e0888a031215620001b257600080fd5b87516001600160401b0380821115620001ca57600080fd5b620001d88b838c01620000ca565b985060208a0151915080821115620001ef57600080fd5b50620001fe8a828b01620000ca565b96505060408801519450620002166060890162000179565b9350620002266080890162000179565b92506200023660a0890162000179565b91506200024660c0890162000179565b905092959891949750929550565b600181811c908216806200026957607f821691505b6020821081036200028a57634e487b7160e01b600052602260045260246000fd5b50919050565b601f821115620002de57600081815260208120601f850160051c81016020861015620002b95750805b601f850160051c820191505b81811015620002da57828155600101620002c5565b5050505b505050565b81516001600160401b03811115620002ff57620002ff620000b4565b620003178162000310845462000254565b8462000290565b602080601f8311600181146200034f5760008415620003365750858301515b600019600386901b1c1916600185901b178555620002da565b600085815260208120601f198616915b8281101562000380578886015182559484019460019091019084016200035f565b50858210156200039f5787850151600019600388901b60f8161c191681555b5050505050600190811b01905550565b6124d280620003bf6000396000f3fe608060405234801561001057600080fd5b50600436106101c45760003560e01c8063adc7078d116100f9578063de11c94a11610097578063f30e6e9b11610071578063f30e6e9b1461040c578063f851a4401461041f578063f8e19a6e14610432578063fb5c3e7b1461045557600080fd5b8063de11c94a146103b6578063de5101af146103c9578063eb2fd735146103f757600080fd5b8063be9afac7116100d3578063be9afac714610374578063c4f7374c14610387578063c6bc51821461039a578063d4ea9e62146103a357600080fd5b8063adc7078d14610345578063b8d16dbc14610358578063bb7831fc1461036b57600080fd5b806352c9ff07116101665780636b905ef9116101405780636b905ef9146102ec5780637485d8dc146102ff5780637f85ea801461032a57806395d89b411461033d57600080fd5b806352c9ff07146102955780635420f185146102c05780636174bc63146102c957600080fd5b8063342d12f9116101a2578063342d12f9146102245780633a6a32c614610239578063402a6db2146102505780634aa6f82c1461027557600080fd5b806306fdde03146101c95780630e2da0f4146101e75780631dd691b21461020c575b600080fd5b6101d161045d565b6040516101de9190611d3e565b60405180910390f35b6101fa6101f5366004611d58565b6104eb565b6040516101de96959493929190611d71565b6102146105c3565b6040516101de9493929190611dad565b61022c6106fb565b6040516101de9190611e4c565b61024260095481565b6040519081526020016101de565b61026361025e366004611eae565b610829565b6040516101de96959493929190611ed0565b610288610283366004611d58565b610919565b6040516101de9190611f1b565b6102426102a3366004611f45565b600c60209081526000928352604080842090915290825290205481565b61024260075481565b6102dc6102d7366004611d58565b610a7b565b60405190151581526020016101de565b6102426102fa366004612023565b610b7d565b600054610312906001600160a01b031681565b6040516001600160a01b0390911681526020016101de565b600154610312906001600160a01b031681565b6101d1610f32565b610312610353366004611eae565b610f3f565b6102dc610366366004611d58565b610f77565b61024260085481565b610242610382366004611eae565b610fb4565b610242610395366004611f45565b611017565b61024260065481565b6102dc6103b1366004611d58565b611048565b600254610312906001600160a01b031681565b6103dc6103d7366004611d58565b6110ac565b604080519384526020840192909252908201526060016101de565b61040a61040536600461207d565b611182565b005b6102dc61041a3660046120cb565b6112c0565b600554610312906001600160a01b031681565b6102dc610440366004611d58565b60116020526000908152604090205460ff1681565b61040a611571565b6003805461046a906120f7565b80601f0160208091040260200160405190810160405280929190818152602001828054610496906120f7565b80156104e35780601f106104b8576101008083540402835291602001916104e3565b820191906000526020600020905b8154815290600101906020018083116104c657829003601f168201915b505050505081565b600a81815481106104fb57600080fd5b906000526020600020906006020160009150905080600001805461051e906120f7565b80601f016020809104026020016040519081016040528092919081815260200182805461054a906120f7565b80156105975780601f1061056c57610100808354040283529160200191610597565b820191906000526020600020905b81548152906001019060200180831161057a57829003601f168201915b50505060018401546002850154600386015460048701546005909701549596929591945060ff16925086565b606080600080600380546105d6906120f7565b80601f0160208091040260200160405190810160405280929190818152602001828054610602906120f7565b801561064f5780601f106106245761010080835404028352916020019161064f565b820191906000526020600020905b81548152906001019060200180831161063257829003601f168201915b5050505050935060048054610663906120f7565b80601f016020809104026020016040519081016040528092919081815260200182805461068f906120f7565b80156106dc5780601f106106b1576101008083540402835291602001916106dc565b820191906000526020600020905b8154815290600101906020018083116106bf57829003601f168201915b5050600554979893976001600160a01b03169650309550929350505050565b6060600a805480602002602001604051908101604052809291908181526020016000905b8282101561082057838290600052602060002090600602016040518060c0016040529081600082018054610752906120f7565b80601f016020809104026020016040519081016040528092919081815260200182805461077e906120f7565b80156107cb5780601f106107a0576101008083540402835291602001916107cb565b820191906000526020600020905b8154815290600101906020018083116107ae57829003601f168201915b505050918352505060018281015460208084019190915260028401546040840152600384015460ff16151560608401526004840154608084015260059093015460a0909201919091529183529201910161071f565b50505050905090565b600f602052816000526040600020818154811061084557600080fd5b6000918252602090912060059091020180546001820180546001600160a01b039092169450919250610876906120f7565b80601f01602080910402602001604051908101604052809291908181526020018280546108a2906120f7565b80156108ef5780601f106108c4576101008083540402835291602001916108ef565b820191906000526020600020905b8154815290600101906020018083116108d257829003601f168201915b50505050600283015460038401546004909401549293909290915060ff8082169161010090041686565b6109546040518060c0016040528060608152602001600081526020016000815260200160001515815260200160008152602001600081525090565b600a5482111561097f5760405162461bcd60e51b815260040161097690612131565b60405180910390fd5b600a82815481106109925761099261215e565b90600052602060002090600602016040518060c00160405290816000820180546109bb906120f7565b80601f01602080910402602001604051908101604052809291908181526020018280546109e7906120f7565b8015610a345780601f10610a0957610100808354040283529160200191610a34565b820191906000526020600020905b815481529060010190602001808311610a1757829003601f168201915b50505091835250506001820154602082015260028201546040820152600382015460ff16151560608201526004820154608082015260059091015460a09091015292915050565b6005546000906001600160a01b03163314610aa85760405162461bcd60e51b815260040161097690612174565b600a54821115610aca5760405162461bcd60e51b815260040161097690612131565b6000600a8381548110610adf57610adf61215e565b906000526020600020906006020160030160006101000a81548160ff0219169083151502179055507f0f23729b9b7d8c48492484f5a29a926e04548cb6197bf098de3d66beab1c306c82600a8481548110610b3c57610b3c61215e565b6000918252602090912060036006909202010154604051610b6c929160ff16909182521515602082015260400190565b60405180910390a15060015b919050565b600080600a8381548110610b9357610b9361215e565b60009182526020909120600690910201600381015490915060ff16610bed5760405162461bcd60e51b815260206004820152601060248201526f141b185b8819195858dd1a5d985d195960821b6044820152606401610976565b6004810154600754600090610c0290836121cb565b610c0c90426121e2565b6040805160c0810182523380825260208083018c81524284860152606084018690528b15156080850152600160a085018190526000848152600b84528681208054600c86528883208f845286528883208190558084018255908252848220018d90558c8152600f8085528782208054968352600d86528883208f845286529782208690558452848201875595865291909420835160059093020180546001600160a01b0319166001600160a01b03909316929092178255925193945090928392820190610cd99082612244565b50604082015160028201556060820151600382015560808201516004909101805460a09093015115156101000261ff00199215159290921661ffff1990931692909217179055600584018054906000610d3183612304565b9190505550600e6000610d476364fbf7f6611938565b815260208082019290925260409081016000908120805460018101825590825292902090910180546001600160a01b0319163390811790915590517f8ba3d554b6c7827c2de4e88dbc53e784351a56633ced3ccd94ba9bddadff410291610db3918b918b91899061231d565b60405180910390a16000868152600f6020526040808220549154600187015491516323b872dd60e01b815233600482015230602482015260448101929092529196506001600160a01b03909116906323b872dd906064016020604051808303816000875af1158015610e29573d6000803e3d6000fd5b505050506040513d601f19601f82011682018060405250810190610e4d91906123d0565b5060018054604051631ccd7d0b60e01b81523360048201526024810189905260448101929092526001600160a01b031690631ccd7d0b90606401600060405180830381600087803b158015610ea157600080fd5b505af1158015610eb5573d6000803e3d6000fd5b505060025460405162fbca1960e71b81523360048201526001600160a01b039091169250637de50c8091506024016020604051808303816000875af1158015610f02573d6000803e3d6000fd5b505050506040513d601f19601f82011682018060405250810190610f2691906123d0565b50505050509392505050565b6004805461046a906120f7565b600e6020528160005260406000208181548110610f5b57600080fd5b6000918252602090912001546001600160a01b03169150829050565b6000610f84600483612403565b158015610f9a5750610f97606483612403565b15155b80610fae5750610fac61019083612403565b155b92915050565b600082600203610fdc57610fc782610f77565b15610fd45750601d610fae565b50601c610fae565b6007831161100157610fef600284612403565b610ffa90601e6121e2565b9050610fae565b61100c600284612403565b610ffa90601f612417565b600b602052816000526040600020818154811061103357600080fd5b90600052602060002001600091509150505481565b6005546000906001600160a01b031633146110755760405162461bcd60e51b815260040161097690612174565b600a548211156110975760405162461bcd60e51b815260040161097690612131565b6001600a8381548110610adf57610adf61215e565b60008080806110be620151808661242a565b905060006105b56110d0600184612417565b6110da919061242a565b905060006110e88284612417565b90506110f661016d8261242a565b6111018360046121cb565b61110b91906121e2565b9550600061111b61016d83612403565b905060015b600c8111611176576000611134828a610fb4565b9050808310156111565781975082600161114e91906121e2565b965050611176565b6111608184612417565b925050808061116e90612304565b915050611120565b50505050509193909250565b6005546001600160a01b031633146111ac5760405162461bcd60e51b815260040161097690612174565b6040805160c08101825284815260208101849052601054918101919091526000606082018190526080820183905260a08201819052600a80546001810182559152815160069091027fc65a7bb8d6351c1cf70c95a316cc6a92839c986682d98bc35f958f4883f9d2a8019081906112239082612244565b50602082015160018201556040808301516002830155606083015160038301805460ff19169115159190911790556080830151600483015560a09092015160059091015560105490517fff26da69cc5fe6fb3e923a76371777678904412be09d4bddd2233a92a52e95c09161129e918691869186919061243e565b60405180910390a1601080549060006112b683612304565b9190505550505050565b6000336001600160a01b0383161461130a5760405162461bcd60e51b815260206004820152600d60248201526c1393d50810555513d492569151609a1b6044820152606401610976565b6001600160a01b0382166000908152600d60209081526040808320868452825280832054600f909252822080549192918390811061134a5761134a61215e565b6000918252602080832060046005909302019190910180549315156101000261ff001990941693909317909255338152600b9091526040902054600110156114bf57336000818152600c60209081526040808320888452825280832054938352600b9091528120546113be90600190612417565b336000908152600b6020526040812080549293509091839081106113e4576113e461215e565b90600052602060002001549050600b6000336001600160a01b03166001600160a01b0316815260200190815260200160002082815481106114275761142761215e565b6000918252602080832090910154338352600b90915260409091208054859081106114545761145461215e565b6000918252602080832090910192909255338152600b909152604090208054806114805761148061246d565b600082815260208082206000199084018101839055909201909255338252600c815260408083208a845290915280822054928252902055506115679050565b336000908152600b602052604090208054806114dd576114dd61246d565b6000828152602081206000199083018101919091550190556002546040516370c3e54960e01b81526001600160a01b038581166004830152909116906370c3e549906024016020604051808303816000875af1158015611541573d6000803e3d6000fd5b505050506040513d601f19601f8201168201806040525081019061156591906123d0565b505b5060019392505050565b6201356060085410156115c65760405162461bcd60e51b815260206004820152601860248201527f416c72656164792063616c6c656420666f7220746f64617900000000000000006044820152606401610976565b6000600e60006115d542611938565b815260200190815260200160002080548060200260200160405190810160405280929190818152602001828054801561163757602002820191906000526020600020905b81546001600160a01b03168152600190910190602001808311611619575b5050505050905060005b8151811015611930576000600b60008484815181106116625761166261215e565b60200260200101516001600160a01b03166001600160a01b031681526020019081526020016000208054806020026020016040519081016040528092919081815260200182805480156116d457602002820191906000526020600020905b8154815260200190600101908083116116c0575b5050505050905060005b81518110156118e0576000600d60008686815181106116ff576116ff61215e565b60200260200101516001600160a01b03166001600160a01b03168152602001908152602001600020600084848151811061173b5761173b61215e565b60200260200101518152602001908152602001600020549050600180156117bf575061176642611938565b6117bd600f600086868151811061177f5761177f61215e565b6020026020010151815260200190815260200160002083815481106117a6576117a661215e565b906000526020600020906005020160020154611938565b145b80156118265750600f60008484815181106117dc576117dc61215e565b6020026020010151815260200190815260200160002081815481106118035761180361215e565b600091825260209091206004600590920201015460ff6101009091041615156001145b600f600085858151811061183c5761183c61215e565b6020026020010151815260200190815260200160002082815481106118635761186361215e565b906000526020600020906005020160040160006101000a81548160ff0219169083151502179055156118cd576118cb8383815181106118a4576118a461215e565b60200260200101518686815181106118be576118be61215e565b602002602001015161194d565b505b50806118d881612304565b9150506116de565b5082516040805142815260208101929092527fc0bd67971b069efed8012d351da12a479227f6c8ec64e706b1c8dcc4a5c810da910160405180910390a1508061192881612304565b915050611641565b505042600855565b600080611944836110ac565b95945050505050565b6001600160a01b0381166000908152600d60209081526040808320858452909152812054600a8054839190869081106119885761198861215e565b90600052602060002090600602016004015490506000600754826119ac91906121cb565b6119b690426121e2565b600080546040516370a0823160e01b81526001600160a01b038981166004830152939450919216906370a0823190602401602060405180830381865afa158015611a04573d6000803e3d6000fd5b505050506040513d601f19601f82011682018060405250810190611a289190612483565b9050600a8781548110611a3d57611a3d61215e565b906000526020600020906006020160010154670de0b6b3a764000082611a63919061242a565b10611c065760008054906101000a90046001600160a01b03166001600160a01b03166323b872dd3330600a8b81548110611a9f57611a9f61215e565b60009182526020909120600160069092020101546040516001600160e01b031960e086901b1681526001600160a01b03938416600482015292909116602483015260448201526064016020604051808303816000875af1158015611b07573d6000803e3d6000fd5b505050506040513d601f19601f82011682018060405250810190611b2b91906123d0565b506000878152600f60205260409020805442919086908110611b4f57611b4f61215e565b90600052602060002090600502016002018190555081600f60008981526020019081526020016000208581548110611b8957611b8961215e565b600091825260209182902060036005909202010191909155604080518981526001600160a01b03891692810192909252600190820152426060820152608081018390527f8207bae4f926dc0b667f5d4689e40e59418ace1078db26da2fed05ad0aec879e9060a00160405180910390a16001945050505050610fae565b6000878152600f60205260408120805486908110611c2657611c2661215e565b906000526020600020906005020160040160016101000a81548160ff0219169083151502179055507f8207bae4f926dc0b667f5d4689e40e59418ace1078db26da2fed05ad0aec879e87876000600f60008c81526020019081526020016000208881548110611c9757611c9761215e565b9060005260206000209060050201600201546000604051611ce39594939291909485526001600160a01b0393909316602085015290151560408401526060830152608082015260a00190565b60405180910390a16000945050505050610fae565b6000815180845260005b81811015611d1e57602081850181015186830182015201611d02565b506000602082860101526020601f19601f83011685010191505092915050565b602081526000611d516020830184611cf8565b9392505050565b600060208284031215611d6a57600080fd5b5035919050565b60c081526000611d8460c0830189611cf8565b60208301979097525060408101949094529115156060840152608083015260a090910152919050565b608081526000611dc06080830187611cf8565b8281036020840152611dd28187611cf8565b6001600160a01b03958616604085015293909416606090920191909152509392505050565b6000815160c08452611e0c60c0850182611cf8565b905060208301516020850152604083015160408501526060830151151560608501526080830151608085015260a083015160a08501528091505092915050565b6000602080830181845280855180835260408601915060408160051b870101925083870160005b82811015611ea157603f19888603018452611e8f858351611df7565b94509285019290850190600101611e73565b5092979650505050505050565b60008060408385031215611ec157600080fd5b50508035926020909101359150565b6001600160a01b038716815260c060208201819052600090611ef490830188611cf8565b60408301969096525060608101939093529015156080830152151560a09091015292915050565b602081526000611d516020830184611df7565b80356001600160a01b0381168114610b7857600080fd5b60008060408385031215611f5857600080fd5b611f6183611f2e565b946020939093013593505050565b634e487b7160e01b600052604160045260246000fd5b600082601f830112611f9657600080fd5b813567ffffffffffffffff80821115611fb157611fb1611f6f565b604051601f8301601f19908116603f01168101908282118183101715611fd957611fd9611f6f565b81604052838152866020858801011115611ff257600080fd5b836020870160208301376000602085830101528094505050505092915050565b801515811461202057600080fd5b50565b60008060006060848603121561203857600080fd5b833567ffffffffffffffff81111561204f57600080fd5b61205b86828701611f85565b935050602084013561206c81612012565b929592945050506040919091013590565b60008060006060848603121561209257600080fd5b833567ffffffffffffffff8111156120a957600080fd5b6120b586828701611f85565b9660208601359650604090950135949350505050565b600080604083850312156120de57600080fd5b823591506120ee60208401611f2e565b90509250929050565b600181811c9082168061210b57607f821691505b60208210810361212b57634e487b7160e01b600052602260045260246000fd5b50919050565b602080825260139082015272141b185b88191bd95cc81b9bdd08195e1a5cdd606a1b604082015260600190565b634e487b7160e01b600052603260045260246000fd5b60208082526021908201527f4f6e6c792061646d696e2063616e2063616c6c20746869732066756e6374696f6040820152603760f91b606082015260800190565b634e487b7160e01b600052601160045260246000fd5b8082028115828204841417610fae57610fae6121b5565b80820180821115610fae57610fae6121b5565b601f82111561223f57600081815260208120601f850160051c8101602086101561221c5750805b601f850160051c820191505b8181101561223b57828155600101612228565b5050505b505050565b815167ffffffffffffffff81111561225e5761225e611f6f565b6122728161226c84546120f7565b846121f5565b602080601f8311600181146122a7576000841561228f5750858301515b600019600386901b1c1916600185901b17855561223b565b600085815260208120601f198616915b828110156122d6578886015182559484019460019091019084016122b7565b50858210156122f45787850151600019600388901b60f8161c191681555b5050505050600190811b01905550565b600060018201612316576123166121b5565b5060010190565b6080815260006123306080830187611cf8565b60208615158185015260018060a01b038616604085015283820360608501526000855461235c816120f7565b808552600182811680156123775760018114612391576123bf565b60ff1984168787015282151560051b8701860194506123bf565b896000528560002060005b848110156123b757815489820189015290830190870161239c565b880187019550505b50929b9a5050505050505050505050565b6000602082840312156123e257600080fd5b8151611d5181612012565b634e487b7160e01b600052601260045260246000fd5b600082612412576124126123ed565b500690565b81810381811115610fae57610fae6121b5565b600082612439576124396123ed565b500490565b6080815260006124516080830187611cf8565b6020830195909552506040810192909252606090910152919050565b634e487b7160e01b600052603160045260246000fd5b60006020828403121561249557600080fd5b505191905056fea26469706673582212207674786b89648aea519b66afaa6d0933d62270ed693195c80a3e6761e0431c9e64736f6c63430008150033",
    "linkReferences": {}
  },
  "methodIdentifiers": {
    "AvailablePlans()": "342d12f9",
    "TrackDayToUsers(uint256,uint256)": "adc7078d",
    "activatePlan(uint256)": "d4ea9e62",
    "activattionStatus(uint256)": "f8e19a6e",
    "admin()": "f851a440",
    "availiablePlans(uint256)": "0e2da0f4",
    "chainlinkDailyCall()": "fb5c3e7b",
    "createPlan(string,uint256,uint256)": "eb2fd735",
    "deactivatePlan(uint256)": "6174bc63",
    "factoryContract()": "de11c94a",
    "getCompanyDetails()": "1dd691b2",
    "getDaysInMonth(uint256,uint256)": "be9afac7",
    "isLeapYear(uint256)": "b8d16dbc",
    "lastCallTime()": "bb7831fc",
    "name()": "06fdde03",
    "nftId()": "c6bc5182",
    "oneMonthTimestamp()": "5420f185",
    "subscribe(string,bool,uint256)": "6b905ef9",
    "subscribersData(uint256,uint256)": "402a6db2",
    "subscriptionIndex4User(address,uint256)": "52c9ff07",
    "symbol()": "95d89b41",
    "timestampToDate(uint256)": "de5101af",
    "tokenForPayment()": "7485d8dc",
    "tokenForReceipt()": "7f85ea80",
    "totalSubAvailiable()": "3a6a32c6",
    "unSubscribe(uint256,address)": "f30e6e9b",
    "userToSubscriptions(address,uint256)": "c4f7374c",
    "viewPlan(uint256)": "4aa6f82c"
  },
  "id": 32
}