{
  "abi": [
    {
      "inputs": [
        {
          "internalType": "string",
          "name": "_name",
          "type": "string"
        },
        {
          "internalType": "string",
          "name": "_symbol",
          "type": "string"
        },
        {
          "internalType": "uint256",
          "name": "_nftId",
          "type": "uint256"
        },
        {
          "internalType": "address",
          "name": "_admin",
          "type": "address"
        },
        {
          "internalType": "address",
          "name": "_factoryContract",
          "type": "address"
        },
        {
          "internalType": "address",
          "name": "_tokenForReceipt",
          "type": "address"
        },
        {
          "internalType": "address",
          "name": "_tokenForPayment",
          "type": "address"
        }
      ],
      "stateMutability": "nonpayable",
      "type": "constructor"
    },
    {
      "anonymous": false,
      "inputs": [
        {
          "indexed": false,
          "internalType": "uint256",
          "name": "planId",
          "type": "uint256"
        },
        {
          "indexed": false,
          "internalType": "bool",
          "name": "planActive",
          "type": "bool"
        }
      ],
      "name": "planActive",
      "type": "event"
    },
    {
      "anonymous": false,
      "inputs": [
        {
          "indexed": false,
          "internalType": "string",
          "name": "name",
          "type": "string"
        },
        {
          "indexed": false,
          "internalType": "uint256",
          "name": "price",
          "type": "uint256"
        },
        {
          "indexed": false,
          "internalType": "uint256",
          "name": "duration",
          "type": "uint256"
        },
        {
          "indexed": false,
          "internalType": "uint256",
          "name": "planId",
          "type": "uint256"
        }
      ],
      "name": "planCreated",
      "type": "event"
    },
    {
      "anonymous": false,
      "inputs": [
        {
          "indexed": false,
          "internalType": "uint256",
          "name": "time",
          "type": "uint256"
        },
        {
          "indexed": false,
          "internalType": "uint256",
          "name": "totalSubsUpdated",
          "type": "uint256"
        }
      ],
      "name": "subscriptionsUpdated",
      "type": "event"
    },
    {
      "anonymous": false,
      "inputs": [
        {
          "indexed": false,
          "internalType": "uint256",
          "name": "planId",
          "type": "uint256"
        },
        {
          "indexed": false,
          "internalType": "address",
          "name": "userAddress",
          "type": "address"
        },
        {
          "indexed": false,
          "internalType": "bool",
          "name": "renewed",
          "type": "bool"
        },
        {
          "indexed": false,
          "internalType": "uint256",
          "name": "startTime",
          "type": "uint256"
        },
        {
          "indexed": false,
          "internalType": "uint256",
          "name": "endTime",
          "type": "uint256"
        }
      ],
      "name": "userRenewed",
      "type": "event"
    },
    {
      "anonymous": false,
      "inputs": [
        {
          "indexed": false,
          "internalType": "string",
          "name": "email",
          "type": "string"
        },
        {
          "indexed": false,
          "internalType": "bool",
          "name": "autoSubscribe",
          "type": "bool"
        },
        {
          "indexed": false,
          "internalType": "address",
          "name": "userAddress",
          "type": "address"
        },
        {
          "indexed": false,
          "internalType": "string",
          "name": "planName",
          "type": "string"
        }
      ],
      "name": "userSubscribed",
      "type": "event"
    },
    {
      "inputs": [],
      "name": "AvailablePlans",
      "outputs": [
        {
          "components": [
            {
              "internalType": "string",
              "name": "planName",
              "type": "string"
            },
            {
              "internalType": "uint256",
              "name": "price",
              "type": "uint256"
            },
            {
              "internalType": "uint256",
              "name": "planID",
              "type": "uint256"
            },
            {
              "internalType": "bool",
              "name": "planActive",
              "type": "bool"
            },
            {
              "internalType": "uint256",
              "name": "planDuration",
              "type": "uint256"
            },
            {
              "internalType": "uint256",
              "name": "totalSubscribers",
              "type": "uint256"
            }
          ],
          "internalType": "struct CompanyContract.PlansDetails[]",
          "name": "",
          "type": "tuple[]"
        }
      ],
      "stateMutability": "view",
      "type": "function"
    },
    {
      "inputs": [
        {
          "internalType": "uint256",
          "name": "",
          "type": "uint256"
        },
        {
          "internalType": "uint256",
          "name": "",
          "type": "uint256"
        }
      ],
      "name": "TrackDayToUsers",
      "outputs": [
        {
          "internalType": "address",
          "name": "",
          "type": "address"
        }
      ],
      "stateMutability": "view",
      "type": "function"
    },
    {
      "inputs": [
        {
          "internalType": "uint256",
          "name": "_planId",
          "type": "uint256"
        }
      ],
      "name": "activatePlan",
      "outputs": [
        {
          "internalType": "bool",
          "name": "",
          "type": "bool"
        }
      ],
      "stateMutability": "nonpayable",
      "type": "function"
    },
    {
      "inputs": [
        {
          "internalType": "uint256",
          "name": "",
          "type": "uint256"
        }
      ],
      "name": "activattionStatus",
      "outputs": [
        {
          "internalType": "bool",
          "name": "",
          "type": "bool"
        }
      ],
      "stateMutability": "view",
      "type": "function"
    },
    {
      "inputs": [],
      "name": "admin",
      "outputs": [
        {
          "internalType": "address",
          "name": "",
          "type": "address"
        }
      ],
      "stateMutability": "view",
      "type": "function"
    },
    {
      "inputs": [
        {
          "internalType": "uint256",
          "name": "_amount",
          "type": "uint256"
        },
        {
          "internalType": "address",
          "name": "_admin",
          "type": "address"
        }
      ],
      "name": "adminWithdrawal",
      "outputs": [],
      "stateMutability": "nonpayable",
      "type": "function"
    },
    {
      "inputs": [
        {
          "internalType": "uint256",
          "name": "",
          "type": "uint256"
        }
      ],
      "name": "availiablePlans",
      "outputs": [
        {
          "internalType": "string",
          "name": "planName",
          "type": "string"
        },
        {
          "internalType": "uint256",
          "name": "price",
          "type": "uint256"
        },
        {
          "internalType": "uint256",
          "name": "planID",
          "type": "uint256"
        },
        {
          "internalType": "bool",
          "name": "planActive",
          "type": "bool"
        },
        {
          "internalType": "uint256",
          "name": "planDuration",
          "type": "uint256"
        },
        {
          "internalType": "uint256",
          "name": "totalSubscribers",
          "type": "uint256"
        }
      ],
      "stateMutability": "view",
      "type": "function"
    },
    {
      "inputs": [],
      "name": "chainlinkDailyCall",
      "outputs": [],
      "stateMutability": "nonpayable",
      "type": "function"
    },
    {
      "inputs": [
        {
          "internalType": "string",
          "name": "_planName",
          "type": "string"
        },
        {
          "internalType": "uint256",
          "name": "_planPrice",
          "type": "uint256"
        },
        {
          "internalType": "uint256",
          "name": "_planDuration",
          "type": "uint256"
        }
      ],
      "name": "createPlan",
      "outputs": [],
      "stateMutability": "nonpayable",
      "type": "function"
    },
    {
      "inputs": [
        {
          "internalType": "uint256",
          "name": "_planId",
          "type": "uint256"
        }
      ],
      "name": "deactivatePlan",
      "outputs": [
        {
          "internalType": "bool",
          "name": "",
          "type": "bool"
        }
      ],
      "stateMutability": "nonpayable",
      "type": "function"
    },
    {
      "inputs": [],
      "name": "factoryContract",
      "outputs": [
        {
          "internalType": "address",
          "name": "",
          "type": "address"
        }
      ],
      "stateMutability": "view",
      "type": "function"
    },
    {
      "inputs": [],
      "name": "getCompanyDetails",
      "outputs": [
        {
          "internalType": "string",
          "name": "name_",
          "type": "string"
        },
        {
          "internalType": "string",
          "name": "symbol_",
          "type": "string"
        },
        {
          "internalType": "address",
          "name": "admin_",
          "type": "address"
        },
        {
          "internalType": "address",
          "name": "companyAddress_",
          "type": "address"
        }
      ],
      "stateMutability": "view",
      "type": "function"
    },
    {
      "inputs": [
        {
          "internalType": "uint256",
          "name": "month",
          "type": "uint256"
        },
        {
          "internalType": "uint256",
          "name": "year",
          "type": "uint256"
        }
      ],
      "name": "getDaysInMonth",
      "outputs": [
        {
          "internalType": "uint256",
          "name": "",
          "type": "uint256"
        }
      ],
      "stateMutability": "pure",
      "type": "function"
    },
    {
      "inputs": [
        {
          "internalType": "uint256",
          "name": "year",
          "type": "uint256"
        }
      ],
      "name": "isLeapYear",
      "outputs": [
        {
          "internalType": "bool",
          "name": "",
          "type": "bool"
        }
      ],
      "stateMutability": "pure",
      "type": "function"
    },
    {
      "inputs": [],
      "name": "lastCallTime",
      "outputs": [
        {
          "internalType": "uint256",
          "name": "",
          "type": "uint256"
        }
      ],
      "stateMutability": "view",
      "type": "function"
    },
    {
      "inputs": [],
      "name": "name",
      "outputs": [
        {
          "internalType": "string",
          "name": "",
          "type": "string"
        }
      ],
      "stateMutability": "view",
      "type": "function"
    },
    {
      "inputs": [],
      "name": "nftId",
      "outputs": [
        {
          "internalType": "uint256",
          "name": "",
          "type": "uint256"
        }
      ],
      "stateMutability": "view",
      "type": "function"
    },
    {
      "inputs": [],
      "name": "oneMonthTimestamp",
      "outputs": [
        {
          "internalType": "uint256",
          "name": "",
          "type": "uint256"
        }
      ],
      "stateMutability": "view",
      "type": "function"
    },
    {
      "inputs": [
        {
          "internalType": "string",
          "name": "_userEmail",
          "type": "string"
        },
        {
          "internalType": "bool",
          "name": "_autoSubscribe",
          "type": "bool"
        },
        {
          "internalType": "uint256",
          "name": "_planId",
          "type": "uint256"
        },
        {
          "internalType": "address",
          "name": "_user",
          "type": "address"
        }
      ],
      "name": "subscribe",
      "outputs": [
        {
          "internalType": "uint256",
          "name": "userId",
          "type": "uint256"
        }
      ],
      "stateMutability": "nonpayable",
      "type": "function"
    },
    {
      "inputs": [
        {
          "internalType": "uint256",
          "name": "",
          "type": "uint256"
        },
        {
          "internalType": "uint256",
          "name": "",
          "type": "uint256"
        }
      ],
      "name": "subscribersData",
      "outputs": [
        {
          "internalType": "address",
          "name": "userAddress",
          "type": "address"
        },
        {
          "internalType": "string",
          "name": "userEmail",
          "type": "string"
        },
        {
          "internalType": "uint256",
          "name": "timeOfSubscription",
          "type": "uint256"
        },
        {
          "internalType": "uint256",
          "name": "subscriptionEnds",
          "type": "uint256"
        },
        {
          "internalType": "bool",
          "name": "autoSubscribe",
          "type": "bool"
        },
        {
          "internalType": "bool",
          "name": "subscriptionStatus",
          "type": "bool"
        }
      ],
      "stateMutability": "view",
      "type": "function"
    },
    {
      "inputs": [
        {
          "internalType": "address",
          "name": "",
          "type": "address"
        },
        {
          "internalType": "uint256",
          "name": "",
          "type": "uint256"
        }
      ],
      "name": "subscriptionIndex4User",
      "outputs": [
        {
          "internalType": "uint256",
          "name": "",
          "type": "uint256"
        }
      ],
      "stateMutability": "view",
      "type": "function"
    },
    {
      "inputs": [],
      "name": "symbol",
      "outputs": [
        {
          "internalType": "string",
          "name": "",
          "type": "string"
        }
      ],
      "stateMutability": "view",
      "type": "function"
    },
    {
      "inputs": [
        {
          "internalType": "uint256",
          "name": "timestamp",
          "type": "uint256"
        }
      ],
      "name": "timestampToDate",
      "outputs": [
        {
          "internalType": "uint256",
          "name": "year",
          "type": "uint256"
        },
        {
          "internalType": "uint256",
          "name": "month",
          "type": "uint256"
        },
        {
          "internalType": "uint256",
          "name": "day",
          "type": "uint256"
        }
      ],
      "stateMutability": "pure",
      "type": "function"
    },
    {
      "inputs": [],
      "name": "tokenForPayment",
      "outputs": [
        {
          "internalType": "address",
          "name": "",
          "type": "address"
        }
      ],
      "stateMutability": "view",
      "type": "function"
    },
    {
      "inputs": [],
      "name": "tokenForReceipt",
      "outputs": [
        {
          "internalType": "address",
          "name": "",
          "type": "address"
        }
      ],
      "stateMutability": "view",
      "type": "function"
    },
    {
      "inputs": [],
      "name": "totalSubAvailiable",
      "outputs": [
        {
          "internalType": "uint256",
          "name": "",
          "type": "uint256"
        }
      ],
      "stateMutability": "view",
      "type": "function"
    },
    {
      "inputs": [
        {
          "internalType": "uint256",
          "name": "_planId",
          "type": "uint256"
        },
        {
          "internalType": "address",
          "name": "_user",
          "type": "address"
        }
      ],
      "name": "unSubscribe",
      "outputs": [
        {
          "internalType": "bool",
          "name": "success",
          "type": "bool"
        }
      ],
      "stateMutability": "nonpayable",
      "type": "function"
    },
    {
      "inputs": [
        {
          "internalType": "address",
          "name": "",
          "type": "address"
        },
        {
          "internalType": "uint256",
          "name": "",
          "type": "uint256"
        }
      ],
      "name": "userToSubscriptions",
      "outputs": [
        {
          "internalType": "uint256",
          "name": "",
          "type": "uint256"
        }
      ],
      "stateMutability": "view",
      "type": "function"
    },
    {
      "inputs": [
        {
          "internalType": "uint256",
          "name": "_planId",
          "type": "uint256"
        }
      ],
      "name": "viewPlan",
      "outputs": [
        {
          "components": [
            {
              "internalType": "string",
              "name": "planName",
              "type": "string"
            },
            {
              "internalType": "uint256",
              "name": "price",
              "type": "uint256"
            },
            {
              "internalType": "uint256",
              "name": "planID",
              "type": "uint256"
            },
            {
              "internalType": "bool",
              "name": "planActive",
              "type": "bool"
            },
            {
              "internalType": "uint256",
              "name": "planDuration",
              "type": "uint256"
            },
            {
              "internalType": "uint256",
              "name": "totalSubscribers",
              "type": "uint256"
            }
          ],
          "internalType": "struct CompanyContract.PlansDetails",
          "name": "plan",
          "type": "tuple"
        }
      ],
      "stateMutability": "view",
      "type": "function"
    }
  ],
  "bytecode": {
    "object": "0x60806040526228206f6007553480156200001857600080fd5b5060405162002a6038038062002a608339810160408190526200003b9162000196565b6003620000498882620002e3565b506004620000588782620002e3565b50600694909455600580546001600160a01b03199081166001600160a01b039586161790915560028054821693851693909317909255600180548316918416919091179055600080549091169190921617905550620003af9050565b634e487b7160e01b600052604160045260246000fd5b600082601f830112620000dc57600080fd5b81516001600160401b0380821115620000f957620000f9620000b4565b604051601f8301601f19908116603f01168101908282118183101715620001245762000124620000b4565b816040528381526020925086838588010111156200014157600080fd5b600091505b8382101562000165578582018301518183018401529082019062000146565b600093810190920192909252949350505050565b80516001600160a01b03811681146200019157600080fd5b919050565b600080600080600080600060e0888a031215620001b257600080fd5b87516001600160401b0380821115620001ca57600080fd5b620001d88b838c01620000ca565b985060208a0151915080821115620001ef57600080fd5b50620001fe8a828b01620000ca565b96505060408801519450620002166060890162000179565b9350620002266080890162000179565b92506200023660a0890162000179565b91506200024660c0890162000179565b905092959891949750929550565b600181811c908216806200026957607f821691505b6020821081036200028a57634e487b7160e01b600052602260045260246000fd5b50919050565b601f821115620002de57600081815260208120601f850160051c81016020861015620002b95750805b601f850160051c820191505b81811015620002da57828155600101620002c5565b5050505b505050565b81516001600160401b03811115620002ff57620002ff620000b4565b620003178162000310845462000254565b8462000290565b602080601f8311600181146200034f5760008415620003365750858301515b600019600386901b1c1916600185901b178555620002da565b600085815260208120601f198616915b8281101562000380578886015182559484019460019091019084016200035f565b50858210156200039f5787850151600019600388901b60f8161c191681555b5050505050600190811b01905550565b6126a180620003bf6000396000f3fe608060405234801561001057600080fd5b50600436106101cf5760003560e01c80639fae76fe11610104578063d4ea9e62116100a2578063f30e6e9b11610071578063f30e6e9b1461042a578063f851a4401461043d578063f8e19a6e14610450578063fb5c3e7b1461047357600080fd5b8063d4ea9e62146103c3578063de11c94a146103d6578063de5101af146103e9578063eb2fd7351461041757600080fd5b8063bb7831fc116100de578063bb7831fc1461038b578063be9afac714610394578063c4f7374c146103a7578063c6bc5182146103ba57600080fd5b80639fae76fe14610350578063adc7078d14610365578063b8d16dbc1461037857600080fd5b80634aa6f82c116101715780636174bc631161014b5780636174bc63146102e75780637485d8dc1461030a5780637f85ea801461033557806395d89b411461034857600080fd5b80634aa6f82c1461029357806352c9ff07146102b35780635420f185146102de57600080fd5b80631dd691b2116101ad5780631dd691b214610238578063342d12f9146102505780633a6a32c614610265578063402a6db21461026e57600080fd5b806306fdde03146101d45780630e2da0f4146101f25780630ffb048914610217575b600080fd5b6101dc61047b565b6040516101e99190611f01565b60405180910390f35b610205610200366004611f1b565b610509565b6040516101e996959493929190611f34565b61022a61022536600461203b565b6105e1565b6040519081526020016101e9565b610240610a8f565b6040516101e994939291906120a5565b610258610bc7565b6040516101e99190612144565b61022a60095481565b61028161027c3660046121a6565b610cf5565b6040516101e9969594939291906121c8565b6102a66102a1366004611f1b565b610de5565b6040516101e99190612213565b61022a6102c1366004612226565b600c60209081526000928352604080842090915290825290205481565b61022a60075481565b6102fa6102f5366004611f1b565b610f3e565b60405190151581526020016101e9565b60005461031d906001600160a01b031681565b6040516001600160a01b0390911681526020016101e9565b60015461031d906001600160a01b031681565b6101dc611040565b61036361035e366004612250565b61104d565b005b61031d6103733660046121a6565b611102565b6102fa610386366004611f1b565b61113a565b61022a60085481565b61022a6103a23660046121a6565b611177565b61022a6103b5366004612226565b6111da565b61022a60065481565b6102fa6103d1366004611f1b565b61120b565b60025461031d906001600160a01b031681565b6103fc6103f7366004611f1b565b61126f565b604080519384526020840192909252908201526060016101e9565b61036361042536600461227c565b611345565b6102fa610438366004612250565b611483565b60055461031d906001600160a01b031681565b6102fa61045e366004611f1b565b60116020526000908152604090205460ff1681565b610363611734565b60038054610488906122ca565b80601f01602080910402602001604051908101604052809291908181526020018280546104b4906122ca565b80156105015780601f106104d657610100808354040283529160200191610501565b820191906000526020600020905b8154815290600101906020018083116104e457829003601f168201915b505050505081565b600a818154811061051957600080fd5b906000526020600020906006020160009150905080600001805461053c906122ca565b80601f0160208091040260200160405190810160405280929190818152602001828054610568906122ca565b80156105b55780601f1061058a576101008083540402835291602001916105b5565b820191906000526020600020905b81548152906001019060200180831161059857829003601f168201915b50505060018401546002850154600386015460048701546005909701549596929591945060ff16925086565b600080600a84815481106105f7576105f7612304565b60009182526020909120600690910201600381015490915060ff166106565760405162461bcd60e51b815260206004820152601060248201526f141b185b8819195858dd1a5d985d195960821b60448201526064015b60405180910390fd5b600481015460075460009061066b9083612330565b6106759042612347565b905060006040518060c00160405280876001600160a01b031681526020018a81526020014281526020018381526020018915158152602001600115158152509050600b6000876001600160a01b03166001600160a01b0316815260200190815260200160002080549050600c6000886001600160a01b03166001600160a01b03168152602001908152602001600020600089815260200190815260200160002081905550600b6000876001600160a01b03166001600160a01b03168152602001908152602001600020879080600181540180825580915050600190039060005260206000200160009091909190915055600f600088815260200190815260200160002080549050600d6000886001600160a01b03166001600160a01b03168152602001908152602001600020600089815260200190815260200160002081905550600f600088815260200190815260200160002081908060018154018082558091505060019003906000526020600020906005020160009091909190915060008201518160000160006101000a8154816001600160a01b0302191690836001600160a01b03160217905550602082015181600101908161083591906123a5565b50604082015160028201556060820151600382015560808201516004909101805460a09093015115156101000261ff00199215159290921661ffff199093169290921717905560058401805490600061088d83612465565b9190505550600e600061089f42611afb565b8152602080820192909252604090810160009081208054600180820183559183528483200180546001600160a01b0319166001600160a01b038c81169182179092558c8452600f9095528383205492549189015493516323b872dd60e01b81526004810195909552306024860152604485019390935290975016906323b872dd906064016020604051808303816000875af1158015610942573d6000803e3d6000fd5b505050506040513d601f19601f82011682018060405250810190610966919061247e565b5060018054604051631ccd7d0b60e01b81526001600160a01b038981166004830152602482018b90526044820193909352911690631ccd7d0b90606401600060405180830381600087803b1580156109bd57600080fd5b505af11580156109d1573d6000803e3d6000fd5b505060025460405162fbca1960e71b81526001600160a01b038a811660048301529091169250637de50c8091506024016020604051808303816000875af1158015610a20573d6000803e3d6000fd5b505050506040513d601f19601f82011682018060405250810190610a44919061247e565b506040517f8ba3d554b6c7827c2de4e88dbc53e784351a56633ced3ccd94ba9bddadff410290610a7b908b908b908a90899061249b565b60405180910390a150505050949350505050565b60608060008060038054610aa2906122ca565b80601f0160208091040260200160405190810160405280929190818152602001828054610ace906122ca565b8015610b1b5780601f10610af057610100808354040283529160200191610b1b565b820191906000526020600020905b815481529060010190602001808311610afe57829003601f168201915b5050505050935060048054610b2f906122ca565b80601f0160208091040260200160405190810160405280929190818152602001828054610b5b906122ca565b8015610ba85780601f10610b7d57610100808354040283529160200191610ba8565b820191906000526020600020905b815481529060010190602001808311610b8b57829003601f168201915b5050600554979893976001600160a01b03169650309550929350505050565b6060600a805480602002602001604051908101604052809291908181526020016000905b82821015610cec57838290600052602060002090600602016040518060c0016040529081600082018054610c1e906122ca565b80601f0160208091040260200160405190810160405280929190818152602001828054610c4a906122ca565b8015610c975780601f10610c6c57610100808354040283529160200191610c97565b820191906000526020600020905b815481529060010190602001808311610c7a57829003601f168201915b505050918352505060018281015460208084019190915260028401546040840152600384015460ff16151560608401526004840154608084015260059093015460a09092019190915291835292019101610beb565b50505050905090565b600f6020528160005260406000208181548110610d1157600080fd5b6000918252602090912060059091020180546001820180546001600160a01b039092169450919250610d42906122ca565b80601f0160208091040260200160405190810160405280929190818152602001828054610d6e906122ca565b8015610dbb5780601f10610d9057610100808354040283529160200191610dbb565b820191906000526020600020905b815481529060010190602001808311610d9e57829003601f168201915b50505050600283015460038401546004909401549293909290915060ff8082169161010090041686565b610e206040518060c0016040528060608152602001600081526020016000815260200160001515815260200160008152602001600081525090565b600a54821115610e425760405162461bcd60e51b815260040161064d9061254e565b600a8281548110610e5557610e55612304565b90600052602060002090600602016040518060c0016040529081600082018054610e7e906122ca565b80601f0160208091040260200160405190810160405280929190818152602001828054610eaa906122ca565b8015610ef75780601f10610ecc57610100808354040283529160200191610ef7565b820191906000526020600020905b815481529060010190602001808311610eda57829003601f168201915b50505091835250506001820154602082015260028201546040820152600382015460ff16151560608201526004820154608082015260059091015460a09091015292915050565b6005546000906001600160a01b03163314610f6b5760405162461bcd60e51b815260040161064d9061257b565b600a54821115610f8d5760405162461bcd60e51b815260040161064d9061254e565b6000600a8381548110610fa257610fa2612304565b906000526020600020906006020160030160006101000a81548160ff0219169083151502179055507f0f23729b9b7d8c48492484f5a29a926e04548cb6197bf098de3d66beab1c306c82600a8481548110610fff57610fff612304565b600091825260209091206003600690920201015460405161102f929160ff16909182521515602082015260400190565b60405180910390a15060015b919050565b60048054610488906122ca565b6005546001600160a01b038281169116146110965760405162461bcd60e51b81526020600482015260096024820152682727aa1020a226a4a760b91b604482015260640161064d565b60005460055460405163a9059cbb60e01b81526001600160a01b0391821660048201526024810185905291169063a9059cbb90604401600060405180830381600087803b1580156110e657600080fd5b505af11580156110fa573d6000803e3d6000fd5b505050505050565b600e602052816000526040600020818154811061111e57600080fd5b6000918252602090912001546001600160a01b03169150829050565b60006111476004836125d2565b15801561115d575061115a6064836125d2565b15155b80611171575061116f610190836125d2565b155b92915050565b60008260020361119f5761118a8261113a565b156111975750601d611171565b50601c611171565b600783116111c4576111b26002846125d2565b6111bd90601e612347565b9050611171565b6111cf6002846125d2565b6111bd90601f6125e6565b600b60205281600052604060002081815481106111f657600080fd5b90600052602060002001600091509150505481565b6005546000906001600160a01b031633146112385760405162461bcd60e51b815260040161064d9061257b565b600a5482111561125a5760405162461bcd60e51b815260040161064d9061254e565b6001600a8381548110610fa257610fa2612304565b600080808061128162015180866125f9565b905060006105b56112936001846125e6565b61129d91906125f9565b905060006112ab82846125e6565b90506112b961016d826125f9565b6112c4836004612330565b6112ce9190612347565b955060006112de61016d836125d2565b905060015b600c81116113395760006112f7828a611177565b905080831015611319578197508260016113119190612347565b965050611339565b61132381846125e6565b925050808061133190612465565b9150506112e3565b50505050509193909250565b6005546001600160a01b0316331461136f5760405162461bcd60e51b815260040161064d9061257b565b6040805160c08101825284815260208101849052601054918101919091526000606082018190526080820183905260a08201819052600a80546001810182559152815160069091027fc65a7bb8d6351c1cf70c95a316cc6a92839c986682d98bc35f958f4883f9d2a8019081906113e690826123a5565b50602082015160018201556040808301516002830155606083015160038301805460ff19169115159190911790556080830151600483015560a09092015160059091015560105490517fff26da69cc5fe6fb3e923a76371777678904412be09d4bddd2233a92a52e95c091611461918691869186919061260d565b60405180910390a16010805490600061147983612465565b9190505550505050565b6001600160a01b0381166000908152600d60209081526040808320858452825280832054600f90925282208054839190839081106114c3576114c3612304565b6000918252602080832060046005909302019190910180549315156101000261ff0019909416939093179092556001600160a01b0385168152600b909152604090205460011015611679576001600160a01b0383166000818152600c60209081526040808320888452825280832054938352600b909152812054611549906001906125e6565b6001600160a01b0386166000908152600b60205260408120805492935090918390811061157857611578612304565b90600052602060002001549050600b6000876001600160a01b03166001600160a01b0316815260200190815260200160002082815481106115bb576115bb612304565b9060005260206000200154600b6000886001600160a01b03166001600160a01b0316815260200190815260200160002084815481106115fc576115fc612304565b60009182526020808320909101929092556001600160a01b0388168152600b909152604090208054806116315761163161263c565b6000828152602080822060001990840181018390559092019092556001600160a01b0388168252600c815260408083208a8452909152808220549282529020555061172a9050565b6001600160a01b0383166000908152600b602052604090208054806116a0576116a061263c565b6000828152602081206000199083018101919091550190556002546040516370c3e54960e01b81526001600160a01b038581166004830152909116906370c3e549906024016020604051808303816000875af1158015611704573d6000803e3d6000fd5b505050506040513d601f19601f82011682018060405250810190611728919061247e565b505b5060019392505050565b6201356060085410156117895760405162461bcd60e51b815260206004820152601860248201527f416c72656164792063616c6c656420666f7220746f6461790000000000000000604482015260640161064d565b6000600e600061179842611afb565b81526020019081526020016000208054806020026020016040519081016040528092919081815260200182805480156117fa57602002820191906000526020600020905b81546001600160a01b031681526001909101906020018083116117dc575b5050505050905060005b8151811015611af3576000600b600084848151811061182557611825612304565b60200260200101516001600160a01b03166001600160a01b0316815260200190815260200160002080548060200260200160405190810160405280929190818152602001828054801561189757602002820191906000526020600020905b815481526020019060010190808311611883575b5050505050905060005b8151811015611aa3576000600d60008686815181106118c2576118c2612304565b60200260200101516001600160a01b03166001600160a01b0316815260200190815260200160002060008484815181106118fe576118fe612304565b6020026020010151815260200190815260200160002054905060018015611982575061192942611afb565b611980600f600086868151811061194257611942612304565b60200260200101518152602001908152602001600020838154811061196957611969612304565b906000526020600020906005020160020154611afb565b145b80156119e95750600f600084848151811061199f5761199f612304565b6020026020010151815260200190815260200160002081815481106119c6576119c6612304565b600091825260209091206004600590920201015460ff6101009091041615156001145b600f60008585815181106119ff576119ff612304565b602002602001015181526020019081526020016000208281548110611a2657611a26612304565b906000526020600020906005020160040160006101000a81548160ff021916908315150217905515611a9057611a8e838381518110611a6757611a67612304565b6020026020010151868681518110611a8157611a81612304565b6020026020010151611b10565b505b5080611a9b81612465565b9150506118a1565b5082516040805142815260208101929092527fc0bd67971b069efed8012d351da12a479227f6c8ec64e706b1c8dcc4a5c810da910160405180910390a15080611aeb81612465565b915050611804565b505042600855565b600080611b078361126f565b95945050505050565b6001600160a01b0381166000908152600d60209081526040808320858452909152812054600a805483919086908110611b4b57611b4b612304565b9060005260206000209060060201600401549050600060075482611b6f9190612330565b611b799042612347565b600080546040516370a0823160e01b81526001600160a01b038981166004830152939450919216906370a0823190602401602060405180830381865afa158015611bc7573d6000803e3d6000fd5b505050506040513d601f19601f82011682018060405250810190611beb9190612652565b9050600a8781548110611c0057611c00612304565b906000526020600020906006020160010154670de0b6b3a764000082611c2691906125f9565b10611dc95760008054906101000a90046001600160a01b03166001600160a01b03166323b872dd8730600a8b81548110611c6257611c62612304565b60009182526020909120600160069092020101546040516001600160e01b031960e086901b1681526001600160a01b03938416600482015292909116602483015260448201526064016020604051808303816000875af1158015611cca573d6000803e3d6000fd5b505050506040513d601f19601f82011682018060405250810190611cee919061247e565b506000878152600f60205260409020805442919086908110611d1257611d12612304565b90600052602060002090600502016002018190555081600f60008981526020019081526020016000208581548110611d4c57611d4c612304565b600091825260209182902060036005909202010191909155604080518981526001600160a01b03891692810192909252600190820152426060820152608081018390527f8207bae4f926dc0b667f5d4689e40e59418ace1078db26da2fed05ad0aec879e9060a00160405180910390a16001945050505050611171565b6000878152600f60205260408120805486908110611de957611de9612304565b906000526020600020906005020160040160016101000a81548160ff0219169083151502179055507f8207bae4f926dc0b667f5d4689e40e59418ace1078db26da2fed05ad0aec879e87876000600f60008c81526020019081526020016000208881548110611e5a57611e5a612304565b9060005260206000209060050201600201546000604051611ea69594939291909485526001600160a01b0393909316602085015290151560408401526060830152608082015260a00190565b60405180910390a16000945050505050611171565b6000815180845260005b81811015611ee157602081850181015186830182015201611ec5565b506000602082860101526020601f19601f83011685010191505092915050565b602081526000611f146020830184611ebb565b9392505050565b600060208284031215611f2d57600080fd5b5035919050565b60c081526000611f4760c0830189611ebb565b60208301979097525060408101949094529115156060840152608083015260a090910152919050565b634e487b7160e01b600052604160045260246000fd5b600082601f830112611f9757600080fd5b813567ffffffffffffffff80821115611fb257611fb2611f70565b604051601f8301601f19908116603f01168101908282118183101715611fda57611fda611f70565b81604052838152866020858801011115611ff357600080fd5b836020870160208301376000602085830101528094505050505092915050565b801515811461202157600080fd5b50565b80356001600160a01b038116811461103b57600080fd5b6000806000806080858703121561205157600080fd5b843567ffffffffffffffff81111561206857600080fd5b61207487828801611f86565b945050602085013561208581612013565b92506040850135915061209a60608601612024565b905092959194509250565b6080815260006120b86080830187611ebb565b82810360208401526120ca8187611ebb565b6001600160a01b03958616604085015293909416606090920191909152509392505050565b6000815160c0845261210460c0850182611ebb565b905060208301516020850152604083015160408501526060830151151560608501526080830151608085015260a083015160a08501528091505092915050565b6000602080830181845280855180835260408601915060408160051b870101925083870160005b8281101561219957603f198886030184526121878583516120ef565b9450928501929085019060010161216b565b5092979650505050505050565b600080604083850312156121b957600080fd5b50508035926020909101359150565b6001600160a01b038716815260c0602082018190526000906121ec90830188611ebb565b60408301969096525060608101939093529015156080830152151560a09091015292915050565b602081526000611f1460208301846120ef565b6000806040838503121561223957600080fd5b61224283612024565b946020939093013593505050565b6000806040838503121561226357600080fd5b8235915061227360208401612024565b90509250929050565b60008060006060848603121561229157600080fd5b833567ffffffffffffffff8111156122a857600080fd5b6122b486828701611f86565b9660208601359650604090950135949350505050565b600181811c908216806122de57607f821691505b6020821081036122fe57634e487b7160e01b600052602260045260246000fd5b50919050565b634e487b7160e01b600052603260045260246000fd5b634e487b7160e01b600052601160045260246000fd5b80820281158282048414176111715761117161231a565b808201808211156111715761117161231a565b601f8211156123a057600081815260208120601f850160051c810160208610156123815750805b601f850160051c820191505b818110156110fa5782815560010161238d565b505050565b815167ffffffffffffffff8111156123bf576123bf611f70565b6123d3816123cd84546122ca565b8461235a565b602080601f83116001811461240857600084156123f05750858301515b600019600386901b1c1916600185901b1785556110fa565b600085815260208120601f198616915b8281101561243757888601518255948401946001909101908401612418565b50858210156124555787850151600019600388901b60f8161c191681555b5050505050600190811b01905550565b6000600182016124775761247761231a565b5060010190565b60006020828403121561249057600080fd5b8151611f1481612013565b6080815260006124ae6080830187611ebb565b60208615158185015260018060a01b03861660408501528382036060850152600085546124da816122ca565b808552600182811680156124f5576001811461250f5761253d565b60ff1984168787015282151560051b87018601945061253d565b896000528560002060005b8481101561253557815489820189015290830190870161251a565b880187019550505b50929b9a5050505050505050505050565b602080825260139082015272141b185b88191bd95cc81b9bdd08195e1a5cdd606a1b604082015260600190565b60208082526021908201527f4f6e6c792061646d696e2063616e2063616c6c20746869732066756e6374696f6040820152603760f91b606082015260800190565b634e487b7160e01b600052601260045260246000fd5b6000826125e1576125e16125bc565b500690565b818103818111156111715761117161231a565b600082612608576126086125bc565b500490565b6080815260006126206080830187611ebb565b6020830195909552506040810192909252606090910152919050565b634e487b7160e01b600052603160045260246000fd5b60006020828403121561266457600080fd5b505191905056fea2646970667358221220036f0a87d0cdcf27b5948b1e2deca3da959baf72c68715889321df45d45e25de64736f6c63430008150033",
    "linkReferences": {}
  },
  "methodIdentifiers": {
    "AvailablePlans()": "342d12f9",
    "TrackDayToUsers(uint256,uint256)": "adc7078d",
    "activatePlan(uint256)": "d4ea9e62",
    "activattionStatus(uint256)": "f8e19a6e",
    "admin()": "f851a440",
    "adminWithdrawal(uint256,address)": "9fae76fe",
    "availiablePlans(uint256)": "0e2da0f4",
    "chainlinkDailyCall()": "fb5c3e7b",
    "createPlan(string,uint256,uint256)": "eb2fd735",
    "deactivatePlan(uint256)": "6174bc63",
    "factoryContract()": "de11c94a",
    "getCompanyDetails()": "1dd691b2",
    "getDaysInMonth(uint256,uint256)": "be9afac7",
    "isLeapYear(uint256)": "b8d16dbc",
    "lastCallTime()": "bb7831fc",
    "name()": "06fdde03",
    "nftId()": "c6bc5182",
    "oneMonthTimestamp()": "5420f185",
    "subscribe(string,bool,uint256,address)": "0ffb0489",
    "subscribersData(uint256,uint256)": "402a6db2",
    "subscriptionIndex4User(address,uint256)": "52c9ff07",
    "symbol()": "95d89b41",
    "timestampToDate(uint256)": "de5101af",
    "tokenForPayment()": "7485d8dc",
    "tokenForReceipt()": "7f85ea80",
    "totalSubAvailiable()": "3a6a32c6",
    "unSubscribe(uint256,address)": "f30e6e9b",
    "userToSubscriptions(address,uint256)": "c4f7374c",
    "viewPlan(uint256)": "4aa6f82c"
  },
  "id": 32
}