{
  "abi": [
    {
      "inputs": [
        {
          "internalType": "address",
          "name": "_tokenForReceipt",
          "type": "address"
        },
        {
          "internalType": "address",
          "name": "_tokenForPayment",
          "type": "address"
        }
      ],
      "stateMutability": "nonpayable",
      "type": "constructor"
    },
    {
      "anonymous": false,
      "inputs": [
        {
          "indexed": false,
          "internalType": "string",
          "name": "name",
          "type": "string"
        },
        {
          "indexed": false,
          "internalType": "string",
          "name": "symbol",
          "type": "string"
        },
        {
          "indexed": false,
          "internalType": "address",
          "name": "companyContract",
          "type": "address"
        }
      ],
      "name": "companyCreated",
      "type": "event"
    },
    {
      "anonymous": false,
      "inputs": [
        {
          "indexed": false,
          "internalType": "bool",
          "name": "paused",
          "type": "bool"
        }
      ],
      "name": "contractPaused",
      "type": "event"
    },
    {
      "inputs": [
        {
          "internalType": "address",
          "name": "contractAccount",
          "type": "address"
        }
      ],
      "name": "AccountcontractState",
      "outputs": [
        {
          "internalType": "bool",
          "name": "",
          "type": "bool"
        }
      ],
      "stateMutability": "view",
      "type": "function"
    },
    {
      "inputs": [
        {
          "internalType": "address",
          "name": "",
          "type": "address"
        },
        {
          "internalType": "uint256",
          "name": "",
          "type": "uint256"
        }
      ],
      "name": "AllSubscriptionContracts",
      "outputs": [
        {
          "internalType": "address",
          "name": "",
          "type": "address"
        }
      ],
      "stateMutability": "view",
      "type": "function"
    },
    {
      "inputs": [],
      "name": "GetALLAddresses",
      "outputs": [
        {
          "internalType": "address[]",
          "name": "",
          "type": "address[]"
        }
      ],
      "stateMutability": "view",
      "type": "function"
    },
    {
      "inputs": [
        {
          "internalType": "address",
          "name": "_owner",
          "type": "address"
        }
      ],
      "name": "GetSpecificAddress",
      "outputs": [
        {
          "internalType": "address",
          "name": "",
          "type": "address"
        }
      ],
      "stateMutability": "view",
      "type": "function"
    },
    {
      "inputs": [
        {
          "internalType": "address",
          "name": "",
          "type": "address"
        }
      ],
      "name": "Identity",
      "outputs": [
        {
          "internalType": "uint256",
          "name": "",
          "type": "uint256"
        }
      ],
      "stateMutability": "view",
      "type": "function"
    },
    {
      "inputs": [
        {
          "internalType": "address",
          "name": "_caller",
          "type": "address"
        }
      ],
      "name": "RemoveSubscribedContract",
      "outputs": [
        {
          "internalType": "bool",
          "name": "",
          "type": "bool"
        }
      ],
      "stateMutability": "nonpayable",
      "type": "function"
    },
    {
      "inputs": [
        {
          "internalType": "address",
          "name": "_caller",
          "type": "address"
        }
      ],
      "name": "UpdateSubscriptionContracts",
      "outputs": [
        {
          "internalType": "bool",
          "name": "",
          "type": "bool"
        }
      ],
      "stateMutability": "nonpayable",
      "type": "function"
    },
    {
      "inputs": [],
      "name": "admin",
      "outputs": [
        {
          "internalType": "address",
          "name": "",
          "type": "address"
        }
      ],
      "stateMutability": "view",
      "type": "function"
    },
    {
      "inputs": [
        {
          "internalType": "uint256",
          "name": "",
          "type": "uint256"
        }
      ],
      "name": "companyAddresses",
      "outputs": [
        {
          "internalType": "address",
          "name": "",
          "type": "address"
        }
      ],
      "stateMutability": "view",
      "type": "function"
    },
    {
      "inputs": [
        {
          "internalType": "string",
          "name": "_name",
          "type": "string"
        },
        {
          "internalType": "string",
          "name": "_symbol",
          "type": "string"
        }
      ],
      "name": "createCompany",
      "outputs": [
        {
          "internalType": "address",
          "name": "",
          "type": "address"
        }
      ],
      "stateMutability": "nonpayable",
      "type": "function"
    },
    {
      "inputs": [],
      "name": "factoryContract",
      "outputs": [
        {
          "internalType": "address",
          "name": "",
          "type": "address"
        }
      ],
      "stateMutability": "view",
      "type": "function"
    },
    {
      "inputs": [
        {
          "internalType": "address",
          "name": "",
          "type": "address"
        }
      ],
      "name": "ownerToCompany",
      "outputs": [
        {
          "internalType": "address",
          "name": "",
          "type": "address"
        }
      ],
      "stateMutability": "view",
      "type": "function"
    },
    {
      "inputs": [],
      "name": "pause",
      "outputs": [],
      "stateMutability": "nonpayable",
      "type": "function"
    },
    {
      "inputs": [
        {
          "internalType": "address",
          "name": "_caller",
          "type": "address"
        }
      ],
      "name": "returnAllSubscripton",
      "outputs": [
        {
          "internalType": "address[]",
          "name": "",
          "type": "address[]"
        }
      ],
      "stateMutability": "view",
      "type": "function"
    },
    {
      "inputs": [],
      "name": "tokenForPayment",
      "outputs": [
        {
          "internalType": "address",
          "name": "",
          "type": "address"
        }
      ],
      "stateMutability": "view",
      "type": "function"
    },
    {
      "inputs": [],
      "name": "tokenForReceipt",
      "outputs": [
        {
          "internalType": "address",
          "name": "",
          "type": "address"
        }
      ],
      "stateMutability": "view",
      "type": "function"
    },
    {
      "inputs": [],
      "name": "totalCompaniesID",
      "outputs": [
        {
          "internalType": "uint256",
          "name": "",
          "type": "uint256"
        }
      ],
      "stateMutability": "view",
      "type": "function"
    },
    {
      "inputs": [
        {
          "internalType": "address",
          "name": "",
          "type": "address"
        },
        {
          "internalType": "address",
          "name": "",
          "type": "address"
        }
      ],
      "name": "trackUserSubIndex",
      "outputs": [
        {
          "internalType": "uint256",
          "name": "",
          "type": "uint256"
        }
      ],
      "stateMutability": "view",
      "type": "function"
    },
    {
      "inputs": [],
      "name": "unpause",
      "outputs": [],
      "stateMutability": "nonpayable",
      "type": "function"
    }
  ],
  "bytecode": {
    "object": "0x608060405234801561001057600080fd5b50604051613bfb380380613bfb83398101604081905261002f91610087565b600280546001600160a01b03199081163317909155600380546001600160a01b03948516908316179055600480549290931691161790556100ba565b80516001600160a01b038116811461008257600080fd5b919050565b6000806040838503121561009a57600080fd5b6100a38361006b565b91506100b16020840161006b565b90509250929050565b613b32806100c96000396000f3fe60806040523480156200001157600080fd5b5060043610620001395760003560e01c80638456cb5911620000bb578063d60dee15116200007a578063d60dee1514620002f1578063de11c94a1462000320578063f14513f21462000334578063f851a440146200034b578063f8a8bc58146200035f57600080fd5b80638456cb59146200025c578063996878451462000266578063c1142891146200027d578063d219f9cc14620002ab578063d3a849e414620002c257600080fd5b806370c3e549116200010857806370c3e54914620001eb5780637485d8dc14620002135780637de50c8014620002275780637f85ea80146200023e57806380717b8e146200025257600080fd5b806305a0860f146200013e5780633f4ba83a146200018757806345e759f914620001935780635539daaa14620001b9575b600080fd5b6200016a6200014f36600462000a44565b6006602052600090815260409020546001600160a01b031681565b6040516001600160a01b0390911681526020015b60405180910390f35b6200019162000369565b005b620001aa620001a436600462000a44565b620003c2565b6040516200017e919062000a69565b620001dc620001ca36600462000a44565b60076020526000908152604090205481565b6040519081526020016200017e565b62000202620001fc36600462000a44565b6200043a565b60405190151581526020016200017e565b6004546200016a906001600160a01b031681565b620002026200023836600462000a44565b620006c9565b6003546200016a906001600160a01b031681565b620001dc60005481565b620001916200077c565b6200016a6200027736600462000ab8565b6200080a565b620001dc6200028e36600462000ad2565b600a60209081526000928352604080842090915290825290205481565b6200016a620002bc36600462000b0a565b62000835565b6200016a620002d336600462000a44565b6001600160a01b039081166000908152600660205260409020541690565b620002026200030236600462000a44565b6001600160a01b031660009081526008602052604090205460ff1690565b6005546200016a906001600160a01b031681565b6200016a6200034536600462000be2565b6200086e565b6002546200016a906001600160a01b031681565b620001aa620009b5565b6002546001600160a01b031633146200038157600080fd5b600b805460ff19169055604051600081527ff378156ac648519c9cd03e0977fbb5b5c0552e1c0cd584389461f5349ba18657906020015b60405180910390a1565b6001600160a01b0381166000908152600960209081526040918290208054835181840281018401909452808452606093928301828280156200042e57602002820191906000526020600020905b81546001600160a01b031681526001909101906020018083116200040f575b50505050509050919050565b3360009081526008602052604081205460ff16801515600114620004965760405162461bcd60e51b815260206004820152600e60248201526d1393d517d055551213d49256915160921b60448201526064015b60405180910390fd5b6001600160a01b038316600090815260096020526040902054600110156200062c576001600160a01b03831660009081526009602052604081208054620004e09060019062000c63565b81548110620004f357620004f362000c79565b6000918252602080832091909101546001600160a01b03878116808552600a845260408086203387528552808620549290931680865283862054918652600990945291909320805492945090918290811062000553576200055362000c79565b60009182526020808320909101546001600160a01b0389811684526009909252604090922080549190921691908490811062000593576200059362000c79565b600091825260208083209190910180546001600160a01b0319166001600160a01b039485161790559188168152600990915260409020805480620005db57620005db62000c8f565b60008281526020808220830160001990810180546001600160a01b03191690559092019092556001600160a01b038881168352600a82526040808420969091168352949052929092205550620006c0565b6001600160a01b0383166000908152600960205260408120805433929062000658576200065862000c79565b6000918252602090912001546001600160a01b031603620006c0576001600160a01b03831660009081526009602052604090208054806200069d576200069d62000c8f565b600082815260209020810160001990810180546001600160a01b03191690550190555b50600192915050565b3360009081526008602052604081205460ff16801515600114620007215760405162461bcd60e51b815260206004820152600e60248201526d1393d517d055551213d49256915160921b60448201526064016200048d565b50506001600160a01b031660009081526009602081815260408084208054600a845282862033808852908552928620819055938352600180850182559085529190932090910180546001600160a01b03191690921790915590565b6002546001600160a01b03163314620007c95760405162461bcd60e51b815260206004820152600e60248201526d139bdd08185d5d1a1bdc9a5e995960921b60448201526064016200048d565b600b805460ff191660019081179091556040519081527ff378156ac648519c9cd03e0977fbb5b5c0552e1c0cd584389461f5349ba1865790602001620003b8565b600181815481106200081b57600080fd5b6000918252602090912001546001600160a01b0316905081565b600960205281600052604060002081815481106200085257600080fd5b6000918252602090912001546001600160a01b03169150829050565b6000805481806200087f8362000ca5565b909155505060008054600354600454604051879387939092339230926001600160a01b03908116921690620008b49062000a19565b620008c6979695949392919062000d09565b604051809103906000f080158015620008e3573d6000803e3d6000fd5b506001805480820182557fb10e2d527612073b26eecdfd717e6a320cf44b4afac2b0732d9fcbe2b7fa0cf60180546001600160a01b0384166001600160a01b031991821681179092553360009081526006602090815260408083208054909416851790935581549382526007815282822093909355600890925290819020805460ff1916909217909155519091507fb380af3655c7248948768007d5e5c6231b93560d65c60c7c18a43b49916a637590620009a49086908690859062000d6b565b60405180910390a190505b92915050565b6060600180548060200260200160405190810160405280929190818152602001828054801562000a0f57602002820191906000526020600020905b81546001600160a01b03168152600190910190602001808311620009f0575b5050505050905090565b612d4f8062000dae83390190565b80356001600160a01b038116811462000a3f57600080fd5b919050565b60006020828403121562000a5757600080fd5b62000a628262000a27565b9392505050565b6020808252825182820181905260009190848201906040850190845b8181101562000aac5783516001600160a01b03168352928401929184019160010162000a85565b50909695505050505050565b60006020828403121562000acb57600080fd5b5035919050565b6000806040838503121562000ae657600080fd5b62000af18362000a27565b915062000b016020840162000a27565b90509250929050565b6000806040838503121562000b1e57600080fd5b62000b298362000a27565b946020939093013593505050565b634e487b7160e01b600052604160045260246000fd5b600082601f83011262000b5f57600080fd5b813567ffffffffffffffff8082111562000b7d5762000b7d62000b37565b604051601f8301601f19908116603f0116810190828211818310171562000ba85762000ba862000b37565b8160405283815286602085880101111562000bc257600080fd5b836020870160208301376000602085830101528094505050505092915050565b6000806040838503121562000bf657600080fd5b823567ffffffffffffffff8082111562000c0f57600080fd5b62000c1d8683870162000b4d565b9350602085013591508082111562000c3457600080fd5b5062000c438582860162000b4d565b9150509250929050565b634e487b7160e01b600052601160045260246000fd5b81810381811115620009af57620009af62000c4d565b634e487b7160e01b600052603260045260246000fd5b634e487b7160e01b600052603160045260246000fd5b60006001820162000cba5762000cba62000c4d565b5060010190565b6000815180845260005b8181101562000ce95760208185018101518683018201520162000ccb565b506000602082860101526020601f19601f83011685010191505092915050565b60e08152600062000d1e60e083018a62000cc1565b828103602084015262000d32818a62000cc1565b604084019890985250506001600160a01b039485166060820152928416608084015290831660a083015290911660c09091015292915050565b60608152600062000d80606083018662000cc1565b828103602084015262000d94818662000cc1565b91505060018060a01b038316604083015294935050505056fe60806040526228206f6007553480156200001857600080fd5b5060405162002d4f38038062002d4f8339810160408190526200003b9162000196565b6003620000498882620002e3565b506004620000588782620002e3565b50600694909455600580546001600160a01b03199081166001600160a01b039586161790915560028054821693851693909317909255600180548316918416919091179055600080549091169190921617905550620003af9050565b634e487b7160e01b600052604160045260246000fd5b600082601f830112620000dc57600080fd5b81516001600160401b0380821115620000f957620000f9620000b4565b604051601f8301601f19908116603f01168101908282118183101715620001245762000124620000b4565b816040528381526020925086838588010111156200014157600080fd5b600091505b8382101562000165578582018301518183018401529082019062000146565b600093810190920192909252949350505050565b80516001600160a01b03811681146200019157600080fd5b919050565b600080600080600080600060e0888a031215620001b257600080fd5b87516001600160401b0380821115620001ca57600080fd5b620001d88b838c01620000ca565b985060208a0151915080821115620001ef57600080fd5b50620001fe8a828b01620000ca565b96505060408801519450620002166060890162000179565b9350620002266080890162000179565b92506200023660a0890162000179565b91506200024660c0890162000179565b905092959891949750929550565b600181811c908216806200026957607f821691505b6020821081036200028a57634e487b7160e01b600052602260045260246000fd5b50919050565b601f821115620002de57600081815260208120601f850160051c81016020861015620002b95750805b601f850160051c820191505b81811015620002da57828155600101620002c5565b5050505b505050565b81516001600160401b03811115620002ff57620002ff620000b4565b620003178162000310845462000254565b8462000290565b602080601f8311600181146200034f5760008415620003365750858301515b600019600386901b1c1916600185901b178555620002da565b600085815260208120601f198616915b8281101562000380578886015182559484019460019091019084016200035f565b50858210156200039f5787850151600019600388901b60f8161c191681555b5050505050600190811b01905550565b61299080620003bf6000396000f3fe608060405234801561001057600080fd5b50600436106101a95760003560e01c8063adc7078d116100f9578063de11c94a11610097578063f30e6e9b11610071578063f30e6e9b146103cc578063f851a440146103df578063f8e19a6e146103f2578063fb5c3e7b1461041557600080fd5b8063de11c94a14610376578063de5101af14610389578063eb2fd735146103b757600080fd5b8063be9afac7116100d3578063be9afac714610334578063c4f7374c14610347578063c6bc51821461035a578063d4ea9e621461036357600080fd5b8063adc7078d14610305578063b8d16dbc14610318578063bb7831fc1461032b57600080fd5b806352c9ff07116101665780636b905ef9116101405780636b905ef9146102ac5780637485d8dc146102bf5780637f85ea80146102ea57806395d89b41146102fd57600080fd5b806352c9ff07146102555780635420f185146102805780636174bc631461028957600080fd5b806306fdde03146101ae5780630e2da0f4146101cc5780631dd691b2146101f1578063342d12f9146102095780633a6a32c61461021e5780634aa6f82c14610235575b600080fd5b6101b661041d565b6040516101c391906120d0565b60405180910390f35b6101df6101da3660046120ea565b6104ab565b6040516101c396959493929190612103565b6101f9610583565b6040516101c3949392919061213f565b6102116106bb565b6040516101c3919061227d565b61022760095481565b6040519081526020016101c3565b6102486102433660046120ea565b61092f565b6040516101c391906122df565b610227610263366004612309565b600c60209081526000928352604080842090915290825290205481565b61022760075481565b61029c6102973660046120ea565b610be3565b60405190151581526020016101c3565b6102276102ba3660046123e4565b610ce5565b6000546102d2906001600160a01b031681565b6040516001600160a01b0390911681526020016101c3565b6001546102d2906001600160a01b031681565b6101b6611086565b6102d261031336600461243e565b611093565b61029c6103263660046120ea565b6110cb565b61022760085481565b61022761034236600461243e565b611108565b610227610355366004612309565b61116b565b61022760065481565b61029c6103713660046120ea565b61119c565b6002546102d2906001600160a01b031681565b61039c6103973660046120ea565b611200565b604080519384526020840192909252908201526060016101c3565b6103ca6103c5366004612460565b6112d6565b005b61029c6103da3660046124ae565b611440565b6005546102d2906001600160a01b031681565b61029c6104003660046120ea565b60106020526000908152604090205460ff1681565b6103ca61170e565b6003805461042a906124da565b80601f0160208091040260200160405190810160405280929190818152602001828054610456906124da565b80156104a35780601f10610478576101008083540402835291602001916104a3565b820191906000526020600020905b81548152906001019060200180831161048657829003601f168201915b505050505081565b600a81815481106104bb57600080fd5b90600052602060002090600702016000915090508060000180546104de906124da565b80601f016020809104026020016040519081016040528092919081815260200182805461050a906124da565b80156105575780601f1061052c57610100808354040283529160200191610557565b820191906000526020600020905b81548152906001019060200180831161053a57829003601f168201915b50505060018401546002850154600386015460048701546005909701549596929591945060ff16925086565b60608060008060038054610596906124da565b80601f01602080910402602001604051908101604052809291908181526020018280546105c2906124da565b801561060f5780601f106105e45761010080835404028352916020019161060f565b820191906000526020600020905b8154815290600101906020018083116105f257829003601f168201915b5050505050935060048054610623906124da565b80601f016020809104026020016040519081016040528092919081815260200182805461064f906124da565b801561069c5780601f106106715761010080835404028352916020019161069c565b820191906000526020600020905b81548152906001019060200180831161067f57829003601f168201915b5050600554979893976001600160a01b03169650309550929350505050565b6060600a805480602002602001604051908101604052809291908181526020016000905b8282101561092657838290600052602060002090600702016040518060e0016040529081600082018054610712906124da565b80601f016020809104026020016040519081016040528092919081815260200182805461073e906124da565b801561078b5780601f106107605761010080835404028352916020019161078b565b820191906000526020600020905b81548152906001019060200180831161076e57829003601f168201915b5050505050815260200160018201548152602001600282015481526020016003820160009054906101000a900460ff16151515158152602001600482015481526020016005820154815260200160068201805480602002602001604051908101604052809291908181526020016000905b8282101561090f5760008481526020908190206040805160c081019091526005850290910180546001600160a01b031682526001810180549293919291840191610845906124da565b80601f0160208091040260200160405190810160405280929190818152602001828054610871906124da565b80156108be5780601f10610893576101008083540402835291602001916108be565b820191906000526020600020905b8154815290600101906020018083116108a157829003601f168201915b505050918352505060028201546020808301919091526003830154604083015260049092015460ff8082161515606084015261010090910416151560809091015290825260019290920191016107fc565b5050505081525050815260200190600101906106df565b50505050905090565b6109716040518060e001604052806060815260200160008152602001600081526020016000151581526020016000815260200160008152602001606081525090565b600a5482111561099c5760405162461bcd60e51b815260040161099390612514565b60405180910390fd5b600a82815481106109af576109af612541565b90600052602060002090600702016040518060e00160405290816000820180546109d8906124da565b80601f0160208091040260200160405190810160405280929190818152602001828054610a04906124da565b8015610a515780601f10610a2657610100808354040283529160200191610a51565b820191906000526020600020905b815481529060010190602001808311610a3457829003601f168201915b5050505050815260200160018201548152602001600282015481526020016003820160009054906101000a900460ff16151515158152602001600482015481526020016005820154815260200160068201805480602002602001604051908101604052809291908181526020016000905b82821015610bd55760008481526020908190206040805160c081019091526005850290910180546001600160a01b031682526001810180549293919291840191610b0b906124da565b80601f0160208091040260200160405190810160405280929190818152602001828054610b37906124da565b8015610b845780601f10610b5957610100808354040283529160200191610b84565b820191906000526020600020905b815481529060010190602001808311610b6757829003601f168201915b505050918352505060028201546020808301919091526003830154604083015260049092015460ff808216151560608401526101009091041615156080909101529082526001929092019101610ac2565b505050915250909392505050565b6005546000906001600160a01b03163314610c105760405162461bcd60e51b815260040161099390612557565b600a54821115610c325760405162461bcd60e51b815260040161099390612514565b6000600a8381548110610c4757610c47612541565b906000526020600020906007020160030160006101000a81548160ff0219169083151502179055507f0f23729b9b7d8c48492484f5a29a926e04548cb6197bf098de3d66beab1c306c82600a8481548110610ca457610ca4612541565b6000918252602090912060036007909202010154604051610cd4929160ff16909182521515602082015260400190565b60405180910390a15060015b919050565b600080600a8381548110610cfb57610cfb612541565b60009182526020909120600790910201600381015490915060ff16610d555760405162461bcd60e51b815260206004820152601060248201526f141b185b8819195858dd1a5d985d195960821b6044820152606401610993565b6004810154600754600090610d6a90836125ae565b610d7490426125c5565b6040805160c0810182523380825260208083018c81524284860152606084018690528b15156080850152600160a085018190526000848152600b84528681208054600c86528883208f845286528883208190558084018255908252848220018d905560068b018054958252600d85528782208e83528552968120859055848201875595865291909420835160059093020180546001600160a01b0319166001600160a01b03909316929092178255925193945090928392820190610e389082612627565b50604082015160028201556060820151600382015560808201516004909101805460a09093015115156101000261ff00199215159290921661ffff1990931692909217179055600584018054906000610e90836126e7565b9190505550600e6000610ea242611b08565b81526020808201929092526040908101600090812080546001808201835591835293822090930180546001600160a01b03191633908117909155600688015491549388015492516323b872dd60e01b81526004810191909152306024820152604481019290925296506001600160a01b03909116906323b872dd906064016020604051808303816000875af1158015610f3f573d6000803e3d6000fd5b505050506040513d601f19601f82011682018060405250810190610f639190612700565b5060018054604051631ccd7d0b60e01b81523360048201526024810189905260448101929092526001600160a01b031690631ccd7d0b90606401600060405180830381600087803b158015610fb757600080fd5b505af1158015610fcb573d6000803e3d6000fd5b505060025460405162fbca1960e71b81523360048201526001600160a01b039091169250637de50c8091506024016020604051808303816000875af1158015611018573d6000803e3d6000fd5b505050506040513d601f19601f8201168201806040525081019061103c9190612700565b506040517f8ba3d554b6c7827c2de4e88dbc53e784351a56633ced3ccd94ba9bddadff410290611073908a908a903390899061271d565b60405180910390a1505050509392505050565b6004805461042a906124da565b600e60205281600052604060002081815481106110af57600080fd5b6000918252602090912001546001600160a01b03169150829050565b60006110d86004836127e6565b1580156110ee57506110eb6064836127e6565b15155b806111025750611100610190836127e6565b155b92915050565b6000826002036111305761111b826110cb565b156111285750601d611102565b50601c611102565b60078311611155576111436002846127e6565b61114e90601e6125c5565b9050611102565b6111606002846127e6565b61114e90601f6127fa565b600b602052816000526040600020818154811061118757600080fd5b90600052602060002001600091509150505481565b6005546000906001600160a01b031633146111c95760405162461bcd60e51b815260040161099390612557565b600a548211156111eb5760405162461bcd60e51b815260040161099390612514565b6001600a8381548110610c4757610c47612541565b6000808080611212620151808661280d565b905060006105b56112246001846127fa565b61122e919061280d565b9050600061123c82846127fa565b905061124a61016d8261280d565b6112558360046125ae565b61125f91906125c5565b9550600061126f61016d836127e6565b905060015b600c81116112ca576000611288828a611108565b9050808310156112aa578197508260016112a291906125c5565b9650506112ca565b6112b481846127fa565b92505080806112c2906126e7565b915050611274565b50505050509193909250565b6005546001600160a01b031633146113005760405162461bcd60e51b815260040161099390612557565b6000600a600f548154811061131757611317612541565b600091825260209091206007909102019050806113348582612627565b506001808201849055600f54600283015560048201839055600a8054918201815560005281906007027fc65a7bb8d6351c1cf70c95a316cc6a92839c986682d98bc35f958f4883f9d2a8018061138a8382612821565b506001828101549082015560028083015490820155600380830154908201805460ff191660ff90921615159190911790556004808301549082015560058083015490820155600680830180546113e39284019190611f14565b5050507fff26da69cc5fe6fb3e923a76371777678904412be09d4bddd2233a92a52e95c0848484600f5460405161141d94939291906128fc565b60405180910390a1600f8054906000611435836126e7565b919050555050505050565b6000336001600160a01b0383161461148a5760405162461bcd60e51b815260206004820152600d60248201526c1393d50810555513d492569151609a1b6044820152606401610993565b6001600160a01b0382166000908152600d60209081526040808320868452909152812054600a8054919291869081106114c5576114c5612541565b906000526020600020906007020160060182815481106114e7576114e7612541565b6000918252602080832060046005909302019190910180549315156101000261ff001990941693909317909255338152600b90915260409020546001101561165c57336000818152600c60209081526040808320888452825280832054938352600b90915281205461155b906001906127fa565b336000908152600b60205260408120805492935090918390811061158157611581612541565b90600052602060002001549050600b6000336001600160a01b03166001600160a01b0316815260200190815260200160002082815481106115c4576115c4612541565b6000918252602080832090910154338352600b90915260409091208054859081106115f1576115f1612541565b6000918252602080832090910192909255338152600b9091526040902080548061161d5761161d61292b565b600082815260208082206000199084018101839055909201909255338252600c815260408083208a845290915280822054928252902055506117049050565b336000908152600b6020526040902080548061167a5761167a61292b565b6000828152602081206000199083018101919091550190556002546040516370c3e54960e01b81526001600160a01b038581166004830152909116906370c3e549906024016020604051808303816000875af11580156116de573d6000803e3d6000fd5b505050506040513d601f19601f820116820180604052508101906117029190612700565b505b5060019392505050565b6201356060085410156117635760405162461bcd60e51b815260206004820152601860248201527f416c72656164792063616c6c656420666f7220746f64617900000000000000006044820152606401610993565b6000600e600061177242611b08565b81526020019081526020016000208054806020026020016040519081016040528092919081815260200182805480156117d457602002820191906000526020600020905b81546001600160a01b031681526001909101906020018083116117b6575b5050505050905060005b8151811015611b00576000600b60008484815181106117ff576117ff612541565b60200260200101516001600160a01b03166001600160a01b0316815260200190815260200160002080548060200260200160405190810160405280929190818152602001828054801561187157602002820191906000526020600020905b81548152602001906001019080831161185d575b5050505050905060005b8151811015611ab0576000600d600086868151811061189c5761189c612541565b60200260200101516001600160a01b03166001600160a01b0316815260200190815260200160002060008484815181106118d8576118d8612541565b602002602001015181526020019081526020016000205490506001801561196d575061190342611b08565b61196b600a85858151811061191a5761191a612541565b60200260200101518154811061193257611932612541565b9060005260206000209060070201600601838154811061195457611954612541565b906000526020600020906005020160020154611b08565b145b80156119e55750600a83838151811061198857611988612541565b6020026020010151815481106119a0576119a0612541565b906000526020600020906007020160060181815481106119c2576119c2612541565b600091825260209091206004600590920201015460ff6101009091041615156001145b600a8484815181106119f9576119f9612541565b602002602001015181548110611a1157611a11612541565b90600052602060002090600702016006018281548110611a3357611a33612541565b906000526020600020906005020160040160006101000a81548160ff021916908315150217905515611a9d57611a9b838381518110611a7457611a74612541565b6020026020010151868681518110611a8e57611a8e612541565b6020026020010151611b1d565b505b5080611aa8816126e7565b91505061187b565b5082516040805142815260208101929092527fc0bd67971b069efed8012d351da12a479227f6c8ec64e706b1c8dcc4a5c810da910160405180910390a15080611af8816126e7565b9150506117de565b505042600855565b600080611b1483611200565b95945050505050565b6001600160a01b0381166000908152600d60209081526040808320858452909152812054600a805483919086908110611b5857611b58612541565b9060005260206000209060070201600401549050600060075482611b7c91906125ae565b611b8690426125c5565b600080546040516370a0823160e01b81526001600160a01b038981166004830152939450919216906370a0823190602401602060405180830381865afa158015611bd4573d6000803e3d6000fd5b505050506040513d601f19601f82011682018060405250810190611bf89190612941565b9050600a8781548110611c0d57611c0d612541565b906000526020600020906007020160010154670de0b6b3a764000082611c33919061280d565b10611dfa5760008054906101000a90046001600160a01b03166001600160a01b03166323b872dd3330600a8b81548110611c6f57611c6f612541565b60009182526020909120600160079092020101546040516001600160e01b031960e086901b1681526001600160a01b03938416600482015292909116602483015260448201526064016020604051808303816000875af1158015611cd7573d6000803e3d6000fd5b505050506040513d601f19601f82011682018060405250810190611cfb9190612700565b5042600a8881548110611d1057611d10612541565b90600052602060002090600702016006018581548110611d3257611d32612541565b90600052602060002090600502016002018190555081600a8881548110611d5b57611d5b612541565b90600052602060002090600702016006018581548110611d7d57611d7d612541565b600091825260209182902060036005909202010191909155604080518981526001600160a01b03891692810192909252600190820152426060820152608081018390527f8207bae4f926dc0b667f5d4689e40e59418ace1078db26da2fed05ad0aec879e9060a00160405180910390a16001945050505050611102565b6000600a8881548110611e0f57611e0f612541565b90600052602060002090600702016006018581548110611e3157611e31612541565b906000526020600020906005020160040160016101000a81548160ff0219169083151502179055507f8207bae4f926dc0b667f5d4689e40e59418ace1078db26da2fed05ad0aec879e87876000600a8b81548110611e9157611e91612541565b90600052602060002090600702016006018881548110611eb357611eb3612541565b9060005260206000209060050201600201546000604051611eff9594939291909485526001600160a01b0393909316602085015290151560408401526060830152608082015260a00190565b60405180910390a16000945050505050611102565b828054828255906000526020600020906005028101928215611fdf5760005260206000209160050282015b82811115611fdf57825482546001600160a01b0319166001600160a01b039091161782558282600180820190611f7790840182612821565b5060028281015490820155600380830154908201556004918201805492909101805460ff938416151560ff19821681178355925461010090819004909416151590930261ff001990921661ffff19909316929092171790556005928301929190910190611f3f565b50611feb929150611fef565b5090565b80821115611feb5780546001600160a01b031916815560006120146001830182612038565b50600060028201819055600382015560048101805461ffff19169055600501611fef565b508054612044906124da565b6000825580601f10612054575050565b601f0160209004906000526020600020908101906120729190612075565b50565b5b80821115611feb5760008155600101612076565b6000815180845260005b818110156120b057602081850181015186830182015201612094565b506000602082860101526020601f19601f83011685010191505092915050565b6020815260006120e3602083018461208a565b9392505050565b6000602082840312156120fc57600080fd5b5035919050565b60c08152600061211660c083018961208a565b60208301979097525060408101949094529115156060840152608083015260a090910152919050565b608081526000612152608083018761208a565b8281036020840152612164818761208a565b6001600160a01b03958616604085015293909416606090920191909152509392505050565b6000815160e0845261219e60e085018261208a565b905060208084015181860152604080850151818701526060808601511515818801526080808701518189015260a080880151818a015260c0808901518a8803828c0152878151808a52888a019150888160051b8b0101898401935060005b8281101561226b578b8203601f19018452845180516001600160a01b031683528b8101518c84018890526122328885018261208a565b828d0151858e01528b8301518c8601528a83015115158b86015291890151151593890193909352948b0194938b019391506001016121fc565b509d9c50505050505050505050505050565b6000602080830181845280855180835260408601915060408160051b870101925083870160005b828110156122d257603f198886030184526122c0858351612189565b945092850192908501906001016122a4565b5092979650505050505050565b6020815260006120e36020830184612189565b80356001600160a01b0381168114610ce057600080fd5b6000806040838503121561231c57600080fd5b612325836122f2565b946020939093013593505050565b634e487b7160e01b600052604160045260246000fd5b600082601f83011261235a57600080fd5b813567ffffffffffffffff8082111561237557612375612333565b604051601f8301601f19908116603f0116810190828211818310171561239d5761239d612333565b816040528381528660208588010111156123b657600080fd5b836020870160208301376000602085830101528094505050505092915050565b801515811461207257600080fd5b6000806000606084860312156123f957600080fd5b833567ffffffffffffffff81111561241057600080fd5b61241c86828701612349565b935050602084013561242d816123d6565b929592945050506040919091013590565b6000806040838503121561245157600080fd5b50508035926020909101359150565b60008060006060848603121561247557600080fd5b833567ffffffffffffffff81111561248c57600080fd5b61249886828701612349565b9660208601359650604090950135949350505050565b600080604083850312156124c157600080fd5b823591506124d1602084016122f2565b90509250929050565b600181811c908216806124ee57607f821691505b60208210810361250e57634e487b7160e01b600052602260045260246000fd5b50919050565b602080825260139082015272141b185b88191bd95cc81b9bdd08195e1a5cdd606a1b604082015260600190565b634e487b7160e01b600052603260045260246000fd5b60208082526021908201527f4f6e6c792061646d696e2063616e2063616c6c20746869732066756e6374696f6040820152603760f91b606082015260800190565b634e487b7160e01b600052601160045260246000fd5b808202811582820484141761110257611102612598565b8082018082111561110257611102612598565b601f82111561262257600081815260208120601f850160051c810160208610156125ff5750805b601f850160051c820191505b8181101561261e5782815560010161260b565b5050505b505050565b815167ffffffffffffffff81111561264157612641612333565b6126558161264f84546124da565b846125d8565b602080601f83116001811461268a57600084156126725750858301515b600019600386901b1c1916600185901b17855561261e565b600085815260208120601f198616915b828110156126b95788860151825594840194600190910190840161269a565b50858210156126d75787850151600019600388901b60f8161c191681555b5050505050600190811b01905550565b6000600182016126f9576126f9612598565b5060010190565b60006020828403121561271257600080fd5b81516120e3816123d6565b608081526000612730608083018761208a565b60208615158185015260018060a01b038616604085015283820360608501526000855461275c816124da565b808552600182811680156127775760018114612791576127bf565b60ff1984168787015282151560051b8701860194506127bf565b896000528560002060005b848110156127b757815489820189015290830190870161279c565b880187019550505b50929b9a5050505050505050505050565b634e487b7160e01b600052601260045260246000fd5b6000826127f5576127f56127d0565b500690565b8181038181111561110257611102612598565b60008261281c5761281c6127d0565b500490565b81810361282c575050565b61283682546124da565b67ffffffffffffffff81111561284e5761284e612333565b61285c8161264f84546124da565b6000601f82116001811461289057600083156128785750848201545b600019600385901b1c1916600184901b1784556128f5565b600085815260209020601f19841690600086815260209020845b838110156128ca57828601548255600195860195909101906020016128aa565b50858310156128e85781850154600019600388901b60f8161c191681555b50505060018360011b0184555b5050505050565b60808152600061290f608083018761208a565b6020830195909552506040810192909252606090910152919050565b634e487b7160e01b600052603160045260246000fd5b60006020828403121561295357600080fd5b505191905056fea264697066735822122066a64ff86edfb2f8adbdb77ef3d2b1cf7b5d83ccfe52c7895a52043ad85e269264736f6c63430008150033a26469706673582212202f8b172435d10787b8bbf7f2c5dc79aa3675663b51d12e2b4ec75a8f4100998764736f6c63430008150033",
    "linkReferences": {}
  },
  "methodIdentifiers": {
    "AccountcontractState(address)": "d60dee15",
    "AllSubscriptionContracts(address,uint256)": "d219f9cc",
    "GetALLAddresses()": "f8a8bc58",
    "GetSpecificAddress(address)": "d3a849e4",
    "Identity(address)": "5539daaa",
    "RemoveSubscribedContract(address)": "70c3e549",
    "UpdateSubscriptionContracts(address)": "7de50c80",
    "admin()": "f851a440",
    "companyAddresses(uint256)": "99687845",
    "createCompany(string,string)": "f14513f2",
    "factoryContract()": "de11c94a",
    "ownerToCompany(address)": "05a0860f",
    "pause()": "8456cb59",
    "returnAllSubscripton(address)": "45e759f9",
    "tokenForPayment()": "7485d8dc",
    "tokenForReceipt()": "7f85ea80",
    "totalCompaniesID()": "80717b8e",
    "trackUserSubIndex(address,address)": "c1142891",
    "unpause()": "3f4ba83a"
  },
  "id": 28
}